{
  "contractName": "ERC721Mintable",
  "abi": [
    {
      "inputs": [
        {
          "internalType": "string",
          "name": "name",
          "type": "string"
        },
        {
          "internalType": "string",
          "name": "symbol",
          "type": "string"
        }
      ],
      "stateMutability": "nonpayable",
      "type": "constructor"
    },
    {
      "anonymous": false,
      "inputs": [
        {
          "indexed": true,
          "internalType": "address",
          "name": "owner",
          "type": "address"
        },
        {
          "indexed": true,
          "internalType": "address",
          "name": "approved",
          "type": "address"
        },
        {
          "indexed": true,
          "internalType": "uint256",
          "name": "tokenId",
          "type": "uint256"
        }
      ],
      "name": "Approval",
      "type": "event"
    },
    {
      "anonymous": false,
      "inputs": [
        {
          "indexed": true,
          "internalType": "address",
          "name": "owner",
          "type": "address"
        },
        {
          "indexed": true,
          "internalType": "address",
          "name": "operator",
          "type": "address"
        },
        {
          "indexed": false,
          "internalType": "bool",
          "name": "approved",
          "type": "bool"
        }
      ],
      "name": "ApprovalForAll",
      "type": "event"
    },
    {
      "anonymous": false,
      "inputs": [
        {
          "indexed": false,
          "internalType": "address",
          "name": "account",
          "type": "address"
        }
      ],
      "name": "Paused",
      "type": "event"
    },
    {
      "anonymous": false,
      "inputs": [
        {
          "indexed": true,
          "internalType": "bytes32",
          "name": "role",
          "type": "bytes32"
        },
        {
          "indexed": true,
          "internalType": "bytes32",
          "name": "previousAdminRole",
          "type": "bytes32"
        },
        {
          "indexed": true,
          "internalType": "bytes32",
          "name": "newAdminRole",
          "type": "bytes32"
        }
      ],
      "name": "RoleAdminChanged",
      "type": "event"
    },
    {
      "anonymous": false,
      "inputs": [
        {
          "indexed": true,
          "internalType": "bytes32",
          "name": "role",
          "type": "bytes32"
        },
        {
          "indexed": true,
          "internalType": "address",
          "name": "account",
          "type": "address"
        },
        {
          "indexed": true,
          "internalType": "address",
          "name": "sender",
          "type": "address"
        }
      ],
      "name": "RoleGranted",
      "type": "event"
    },
    {
      "anonymous": false,
      "inputs": [
        {
          "indexed": true,
          "internalType": "bytes32",
          "name": "role",
          "type": "bytes32"
        },
        {
          "indexed": true,
          "internalType": "address",
          "name": "account",
          "type": "address"
        },
        {
          "indexed": true,
          "internalType": "address",
          "name": "sender",
          "type": "address"
        }
      ],
      "name": "RoleRevoked",
      "type": "event"
    },
    {
      "anonymous": false,
      "inputs": [
        {
          "indexed": true,
          "internalType": "address",
          "name": "from",
          "type": "address"
        },
        {
          "indexed": true,
          "internalType": "address",
          "name": "to",
          "type": "address"
        },
        {
          "indexed": true,
          "internalType": "uint256",
          "name": "tokenId",
          "type": "uint256"
        }
      ],
      "name": "Transfer",
      "type": "event"
    },
    {
      "anonymous": false,
      "inputs": [
        {
          "indexed": false,
          "internalType": "address",
          "name": "account",
          "type": "address"
        }
      ],
      "name": "Unpaused",
      "type": "event"
    },
    {
      "inputs": [],
      "name": "DEFAULT_ADMIN_ROLE",
      "outputs": [
        {
          "internalType": "bytes32",
          "name": "",
          "type": "bytes32"
        }
      ],
      "stateMutability": "view",
      "type": "function"
    },
    {
      "inputs": [],
      "name": "MINTER_ROLE",
      "outputs": [
        {
          "internalType": "bytes32",
          "name": "",
          "type": "bytes32"
        }
      ],
      "stateMutability": "view",
      "type": "function"
    },
    {
      "inputs": [],
      "name": "PAUSER_ROLE",
      "outputs": [
        {
          "internalType": "bytes32",
          "name": "",
          "type": "bytes32"
        }
      ],
      "stateMutability": "view",
      "type": "function"
    },
    {
      "inputs": [
        {
          "internalType": "address",
          "name": "to",
          "type": "address"
        },
        {
          "internalType": "uint256",
          "name": "tokenId",
          "type": "uint256"
        }
      ],
      "name": "approve",
      "outputs": [],
      "stateMutability": "nonpayable",
      "type": "function"
    },
    {
      "inputs": [
        {
          "internalType": "address",
          "name": "owner",
          "type": "address"
        }
      ],
      "name": "balanceOf",
      "outputs": [
        {
          "internalType": "uint256",
          "name": "",
          "type": "uint256"
        }
      ],
      "stateMutability": "view",
      "type": "function"
    },
    {
      "inputs": [
        {
          "internalType": "uint256",
          "name": "tokenId",
          "type": "uint256"
        }
      ],
      "name": "burn",
      "outputs": [],
      "stateMutability": "nonpayable",
      "type": "function"
    },
    {
      "inputs": [
        {
          "internalType": "uint256",
          "name": "tokenId",
          "type": "uint256"
        }
      ],
      "name": "getApproved",
      "outputs": [
        {
          "internalType": "address",
          "name": "",
          "type": "address"
        }
      ],
      "stateMutability": "view",
      "type": "function"
    },
    {
      "inputs": [
        {
          "internalType": "bytes32",
          "name": "role",
          "type": "bytes32"
        }
      ],
      "name": "getRoleAdmin",
      "outputs": [
        {
          "internalType": "bytes32",
          "name": "",
          "type": "bytes32"
        }
      ],
      "stateMutability": "view",
      "type": "function"
    },
    {
      "inputs": [
        {
          "internalType": "bytes32",
          "name": "role",
          "type": "bytes32"
        },
        {
          "internalType": "uint256",
          "name": "index",
          "type": "uint256"
        }
      ],
      "name": "getRoleMember",
      "outputs": [
        {
          "internalType": "address",
          "name": "",
          "type": "address"
        }
      ],
      "stateMutability": "view",
      "type": "function"
    },
    {
      "inputs": [
        {
          "internalType": "bytes32",
          "name": "role",
          "type": "bytes32"
        }
      ],
      "name": "getRoleMemberCount",
      "outputs": [
        {
          "internalType": "uint256",
          "name": "",
          "type": "uint256"
        }
      ],
      "stateMutability": "view",
      "type": "function"
    },
    {
      "inputs": [
        {
          "internalType": "bytes32",
          "name": "role",
          "type": "bytes32"
        },
        {
          "internalType": "address",
          "name": "account",
          "type": "address"
        }
      ],
      "name": "grantRole",
      "outputs": [],
      "stateMutability": "nonpayable",
      "type": "function"
    },
    {
      "inputs": [
        {
          "internalType": "bytes32",
          "name": "role",
          "type": "bytes32"
        },
        {
          "internalType": "address",
          "name": "account",
          "type": "address"
        }
      ],
      "name": "hasRole",
      "outputs": [
        {
          "internalType": "bool",
          "name": "",
          "type": "bool"
        }
      ],
      "stateMutability": "view",
      "type": "function"
    },
    {
      "inputs": [
        {
          "internalType": "address",
          "name": "owner",
          "type": "address"
        },
        {
          "internalType": "address",
          "name": "operator",
          "type": "address"
        }
      ],
      "name": "isApprovedForAll",
      "outputs": [
        {
          "internalType": "bool",
          "name": "",
          "type": "bool"
        }
      ],
      "stateMutability": "view",
      "type": "function"
    },
    {
      "inputs": [
        {
          "internalType": "address",
          "name": "to",
          "type": "address"
        }
      ],
      "name": "mint",
      "outputs": [],
      "stateMutability": "nonpayable",
      "type": "function"
    },
    {
      "inputs": [],
      "name": "name",
      "outputs": [
        {
          "internalType": "string",
          "name": "",
          "type": "string"
        }
      ],
      "stateMutability": "view",
      "type": "function"
    },
    {
      "inputs": [
        {
          "internalType": "uint256",
          "name": "tokenId",
          "type": "uint256"
        }
      ],
      "name": "ownerOf",
      "outputs": [
        {
          "internalType": "address",
          "name": "",
          "type": "address"
        }
      ],
      "stateMutability": "view",
      "type": "function"
    },
    {
      "inputs": [],
      "name": "pause",
      "outputs": [],
      "stateMutability": "nonpayable",
      "type": "function"
    },
    {
      "inputs": [],
      "name": "paused",
      "outputs": [
        {
          "internalType": "bool",
          "name": "",
          "type": "bool"
        }
      ],
      "stateMutability": "view",
      "type": "function"
    },
    {
      "inputs": [
        {
          "internalType": "bytes32",
          "name": "role",
          "type": "bytes32"
        },
        {
          "internalType": "address",
          "name": "account",
          "type": "address"
        }
      ],
      "name": "renounceRole",
      "outputs": [],
      "stateMutability": "nonpayable",
      "type": "function"
    },
    {
      "inputs": [
        {
          "internalType": "bytes32",
          "name": "role",
          "type": "bytes32"
        },
        {
          "internalType": "address",
          "name": "account",
          "type": "address"
        }
      ],
      "name": "revokeRole",
      "outputs": [],
      "stateMutability": "nonpayable",
      "type": "function"
    },
    {
      "inputs": [
        {
          "internalType": "address",
          "name": "from",
          "type": "address"
        },
        {
          "internalType": "address",
          "name": "to",
          "type": "address"
        },
        {
          "internalType": "uint256",
          "name": "tokenId",
          "type": "uint256"
        }
      ],
      "name": "safeTransferFrom",
      "outputs": [],
      "stateMutability": "nonpayable",
      "type": "function"
    },
    {
      "inputs": [
        {
          "internalType": "address",
          "name": "from",
          "type": "address"
        },
        {
          "internalType": "address",
          "name": "to",
          "type": "address"
        },
        {
          "internalType": "uint256",
          "name": "tokenId",
          "type": "uint256"
        },
        {
          "internalType": "bytes",
          "name": "_data",
          "type": "bytes"
        }
      ],
      "name": "safeTransferFrom",
      "outputs": [],
      "stateMutability": "nonpayable",
      "type": "function"
    },
    {
      "inputs": [
        {
          "internalType": "address",
          "name": "operator",
          "type": "address"
        },
        {
          "internalType": "bool",
          "name": "approved",
          "type": "bool"
        }
      ],
      "name": "setApprovalForAll",
      "outputs": [],
      "stateMutability": "nonpayable",
      "type": "function"
    },
    {
      "inputs": [
        {
          "internalType": "bytes4",
          "name": "interfaceId",
          "type": "bytes4"
        }
      ],
      "name": "supportsInterface",
      "outputs": [
        {
          "internalType": "bool",
          "name": "",
          "type": "bool"
        }
      ],
      "stateMutability": "view",
      "type": "function"
    },
    {
      "inputs": [],
      "name": "symbol",
      "outputs": [
        {
          "internalType": "string",
          "name": "",
          "type": "string"
        }
      ],
      "stateMutability": "view",
      "type": "function"
    },
    {
      "inputs": [
        {
          "internalType": "uint256",
          "name": "index",
          "type": "uint256"
        }
      ],
      "name": "tokenByIndex",
      "outputs": [
        {
          "internalType": "uint256",
          "name": "",
          "type": "uint256"
        }
      ],
      "stateMutability": "view",
      "type": "function"
    },
    {
      "inputs": [
        {
          "internalType": "address",
          "name": "owner",
          "type": "address"
        },
        {
          "internalType": "uint256",
          "name": "index",
          "type": "uint256"
        }
      ],
      "name": "tokenOfOwnerByIndex",
      "outputs": [
        {
          "internalType": "uint256",
          "name": "",
          "type": "uint256"
        }
      ],
      "stateMutability": "view",
      "type": "function"
    },
    {
      "inputs": [
        {
          "internalType": "uint256",
          "name": "tokenId",
          "type": "uint256"
        }
      ],
      "name": "tokenURI",
      "outputs": [
        {
          "internalType": "string",
          "name": "",
          "type": "string"
        }
      ],
      "stateMutability": "view",
      "type": "function"
    },
    {
      "inputs": [],
      "name": "totalSupply",
      "outputs": [
        {
          "internalType": "uint256",
          "name": "",
          "type": "uint256"
        }
      ],
      "stateMutability": "view",
      "type": "function"
    },
    {
      "inputs": [
        {
          "internalType": "address",
          "name": "from",
          "type": "address"
        },
        {
          "internalType": "address",
          "name": "to",
          "type": "address"
        },
        {
          "internalType": "uint256",
          "name": "tokenId",
          "type": "uint256"
        }
      ],
      "name": "transferFrom",
      "outputs": [],
      "stateMutability": "nonpayable",
      "type": "function"
    },
    {
      "inputs": [],
      "name": "unpause",
      "outputs": [],
      "stateMutability": "nonpayable",
      "type": "function"
    },
    {
      "inputs": [],
      "name": "getOwner",
      "outputs": [
        {
          "internalType": "address",
          "name": "",
          "type": "address"
        }
      ],
      "stateMutability": "view",
      "type": "function"
    }
  ],
  "bytecode": "0x60806040523480156200001157600080fd5b506040516200502938038062005029833981810160405281019062000037919062000692565b81816040518060600160405280603f815260200162004fea603f9139828281600290805190602001906200006d92919062000445565b5080600390805190602001906200008692919062000445565b5050506000600c60006101000a81548160ff02191690831515021790555080600e9080519060200190620000bc92919062000445565b50620000e16000801b620000d5620001af60201b60201c565b620001b760201b60201c565b620001227f9f2df0fed2c77648de5860a4cc508cd0818c85b8b8a1ab4ceeef8d981c8956a662000116620001af60201b60201c565b620001b760201b60201c565b620001637f65d7a28e3265b37a6474929f336521b332c1681b933f6cb9f3376673440d862a62000157620001af60201b60201c565b620001b760201b60201c565b50505033600f60006101000a81548173ffffffffffffffffffffffffffffffffffffffff021916908373ffffffffffffffffffffffffffffffffffffffff16021790555050506200077c565b600033905090565b620001ce8282620001ff60201b620013371760201c565b620001fa81600160008581526020019081526020016000206200021560201b620013451790919060201c565b505050565b6200021182826200024d60201b60201c565b5050565b600062000245836000018373ffffffffffffffffffffffffffffffffffffffff1660001b6200033e60201b60201c565b905092915050565b6200025f8282620003b860201b60201c565b6200033a57600160008084815260200190815260200160002060000160008373ffffffffffffffffffffffffffffffffffffffff1673ffffffffffffffffffffffffffffffffffffffff16815260200190815260200160002060006101000a81548160ff021916908315150217905550620002df620001af60201b60201c565b73ffffffffffffffffffffffffffffffffffffffff168173ffffffffffffffffffffffffffffffffffffffff16837f2f8788117e7eff1d82e926ec794901d17c78024a50270940304540a733656f0d60405160405180910390a45b5050565b60006200035283836200042260201b60201c565b620003ad578260000182908060018154018082558091505060019003906000526020600020016000909190919091505582600001805490508360010160008481526020019081526020016000208190555060019050620003b2565b600090505b92915050565b600080600084815260200190815260200160002060000160008373ffffffffffffffffffffffffffffffffffffffff1673ffffffffffffffffffffffffffffffffffffffff16815260200190815260200160002060009054906101000a900460ff16905092915050565b600080836001016000848152602001908152602001600020541415905092915050565b828054620004539062000746565b90600052602060002090601f016020900481019282620004775760008555620004c3565b82601f106200049257805160ff1916838001178555620004c3565b82800160010185558215620004c3579182015b82811115620004c2578251825591602001919060010190620004a5565b5b509050620004d29190620004d6565b5090565b5b80821115620004f1576000816000905550600101620004d7565b5090565b6000604051905090565b600080fd5b600080fd5b600080fd5b600080fd5b6000601f19601f8301169050919050565b7f4e487b7100000000000000000000000000000000000000000000000000000000600052604160045260246000fd5b6200055e8262000513565b810181811067ffffffffffffffff8211171562000580576200057f62000524565b5b80604052505050565b600062000595620004f5565b9050620005a3828262000553565b919050565b600067ffffffffffffffff821115620005c657620005c562000524565b5b620005d18262000513565b9050602081019050919050565b60005b83811015620005fe578082015181840152602081019050620005e1565b838111156200060e576000848401525b50505050565b60006200062b6200062584620005a8565b62000589565b9050828152602081018484840111156200064a57620006496200050e565b5b62000657848285620005de565b509392505050565b600082601f83011262000677576200067662000509565b5b81516200068984826020860162000614565b91505092915050565b60008060408385031215620006ac57620006ab620004ff565b5b600083015167ffffffffffffffff811115620006cd57620006cc62000504565b5b620006db858286016200065f565b925050602083015167ffffffffffffffff811115620006ff57620006fe62000504565b5b6200070d858286016200065f565b9150509250929050565b7f4e487b7100000000000000000000000000000000000000000000000000000000600052602260045260246000fd5b600060028204905060018216806200075f57607f821691505b6020821081141562000776576200077562000717565b5b50919050565b61485e806200078c6000396000f3fe608060405234801561001057600080fd5b50600436106101f05760003560e01c80636a6278421161010f578063a22cb465116100a2578063d539139311610071578063d5391393146105c9578063d547741f146105e7578063e63ab1e914610603578063e985e9c514610621576101f0565b8063a22cb46514610531578063b88d4fde1461054d578063c87b56dd14610569578063ca15c87314610599576101f0565b80639010d07c116100de5780639010d07c1461049557806391d14854146104c557806395d89b41146104f5578063a217fddf14610513576101f0565b80636a6278421461042157806370a082311461043d5780638456cb591461046d578063893d20e814610477576101f0565b80632f745c591161018757806342966c681161015657806342966c68146103875780634f6ccce7146103a35780635c975abb146103d35780636352211e146103f1576101f0565b80632f745c591461031557806336568abe146103455780633f4ba83a1461036157806342842e0e1461036b576101f0565b806318160ddd116101c357806318160ddd1461028f57806323b872dd146102ad578063248a9ca3146102c95780632f2ff15d146102f9576101f0565b806301ffc9a7146101f557806306fdde0314610225578063081812fc14610243578063095ea7b314610273575b600080fd5b61020f600480360381019061020a9190612f7b565b610651565b60405161021c9190612fc3565b60405180910390f35b61022d610663565b60405161023a9190613077565b60405180910390f35b61025d600480360381019061025891906130cf565b6106f5565b60405161026a919061313d565b60405180910390f35b61028d60048036038101906102889190613184565b61077a565b005b610297610892565b6040516102a491906131d3565b60405180910390f35b6102c760048036038101906102c291906131ee565b61089f565b005b6102e360048036038101906102de9190613277565b6108ff565b6040516102f091906132b3565b60405180910390f35b610313600480360381019061030e91906132ce565b61091e565b005b61032f600480360381019061032a9190613184565b610952565b60405161033c91906131d3565b60405180910390f35b61035f600480360381019061035a91906132ce565b6109f7565b005b610369610a2b565b005b610385600480360381019061038091906131ee565b610aa5565b005b6103a1600480360381019061039c91906130cf565b610ac5565b005b6103bd60048036038101906103b891906130cf565b610b21565b6040516103ca91906131d3565b60405180910390f35b6103db610b92565b6040516103e89190612fc3565b60405180910390f35b61040b600480360381019061040691906130cf565b610ba9565b604051610418919061313d565b60405180910390f35b61043b6004803603810190610436919061330e565b610c5b565b005b6104576004803603810190610452919061330e565b610ceb565b60405161046491906131d3565b60405180910390f35b610475610da3565b005b61047f610e1d565b60405161048c919061313d565b60405180910390f35b6104af60048036038101906104aa919061333b565b610e47565b6040516104bc919061313d565b60405180910390f35b6104df60048036038101906104da91906132ce565b610e76565b6040516104ec9190612fc3565b60405180910390f35b6104fd610ee0565b60405161050a9190613077565b60405180910390f35b61051b610f72565b60405161052891906132b3565b60405180910390f35b61054b600480360381019061054691906133a7565b610f79565b005b6105676004803603810190610562919061351c565b6110fa565b005b610583600480360381019061057e91906130cf565b61115c565b6040516105909190613077565b60405180910390f35b6105b360048036038101906105ae9190613277565b611203565b6040516105c091906131d3565b60405180910390f35b6105d1611227565b6040516105de91906132b3565b60405180910390f35b61060160048036038101906105fc91906132ce565b61124b565b005b61060b61127f565b60405161061891906132b3565b60405180910390f35b61063b6004803603810190610636919061359f565b6112a3565b6040516106489190612fc3565b60405180910390f35b600061065c82611375565b9050919050565b6060600280546106729061360e565b80601f016020809104026020016040519081016040528092919081815260200182805461069e9061360e565b80156106eb5780601f106106c0576101008083540402835291602001916106eb565b820191906000526020600020905b8154815290600101906020018083116106ce57829003601f168201915b5050505050905090565b6000610700826113ef565b61073f576040517f08c379a0000000000000000000000000000000000000000000000000000000008152600401610736906136b2565b60405180910390fd5b6006600083815260200190815260200160002060009054906101000a900473ffffffffffffffffffffffffffffffffffffffff169050919050565b600061078582610ba9565b90508073ffffffffffffffffffffffffffffffffffffffff168373ffffffffffffffffffffffffffffffffffffffff1614156107f6576040517f08c379a00000000000000000000000000000000000000000000000000000000081526004016107ed90613744565b60405180910390fd5b8073ffffffffffffffffffffffffffffffffffffffff1661081561145b565b73ffffffffffffffffffffffffffffffffffffffff16148061084457506108438161083e61145b565b6112a3565b5b610883576040517f08c379a000000000000000000000000000000000000000000000000000000000815260040161087a906137d6565b60405180910390fd5b61088d8383611463565b505050565b6000600a80549050905090565b6108b06108aa61145b565b8261151c565b6108ef576040517f08c379a00000000000000000000000000000000000000000000000000000000081526004016108e690613868565b60405180910390fd5b6108fa8383836115fa565b505050565b6000806000838152602001908152602001600020600101549050919050565b6109288282611856565b61094d816001600085815260200190815260200160002061134590919063ffffffff16565b505050565b600061095d83610ceb565b821061099e576040517f08c379a0000000000000000000000000000000000000000000000000000000008152600401610995906138fa565b60405180910390fd5b600860008473ffffffffffffffffffffffffffffffffffffffff1673ffffffffffffffffffffffffffffffffffffffff168152602001908152602001600020600083815260200190815260200160002054905092915050565b610a01828261187f565b610a26816001600085815260200190815260200160002061190290919063ffffffff16565b505050565b610a5c7f65d7a28e3265b37a6474929f336521b332c1681b933f6cb9f3376673440d862a610a5761145b565b610e76565b610a9b576040517f08c379a0000000000000000000000000000000000000000000000000000000008152600401610a929061398c565b60405180910390fd5b610aa3611932565b565b610ac0838383604051806020016040528060008152506110fa565b505050565b610ad6610ad061145b565b8261151c565b610b15576040517f08c379a0000000000000000000000000000000000000000000000000000000008152600401610b0c90613a1e565b60405180910390fd5b610b1e816119d4565b50565b6000610b2b610892565b8210610b6c576040517f08c379a0000000000000000000000000000000000000000000000000000000008152600401610b6390613ab0565b60405180910390fd5b600a8281548110610b8057610b7f613ad0565b5b90600052602060002001549050919050565b6000600c60009054906101000a900460ff16905090565b6000806004600084815260200190815260200160002060009054906101000a900473ffffffffffffffffffffffffffffffffffffffff169050600073ffffffffffffffffffffffffffffffffffffffff168173ffffffffffffffffffffffffffffffffffffffff161415610c52576040517f08c379a0000000000000000000000000000000000000000000000000000000008152600401610c4990613b71565b60405180910390fd5b80915050919050565b610c8c7f9f2df0fed2c77648de5860a4cc508cd0818c85b8b8a1ab4ceeef8d981c8956a6610c8761145b565b610e76565b610ccb576040517f08c379a0000000000000000000000000000000000000000000000000000000008152600401610cc290613c03565b60405180910390fd5b610cde81610cd9600d611ae5565b611af3565b610ce8600d611cc1565b50565b60008073ffffffffffffffffffffffffffffffffffffffff168273ffffffffffffffffffffffffffffffffffffffff161415610d5c576040517f08c379a0000000000000000000000000000000000000000000000000000000008152600401610d5390613c95565b60405180910390fd5b600560008373ffffffffffffffffffffffffffffffffffffffff1673ffffffffffffffffffffffffffffffffffffffff168152602001908152602001600020549050919050565b610dd47f65d7a28e3265b37a6474929f336521b332c1681b933f6cb9f3376673440d862a610dcf61145b565b610e76565b610e13576040517f08c379a0000000000000000000000000000000000000000000000000000000008152600401610e0a90613d27565b60405180910390fd5b610e1b611cd7565b565b6000600f60009054906101000a900473ffffffffffffffffffffffffffffffffffffffff16905090565b6000610e6e8260016000868152602001908152602001600020611d7a90919063ffffffff16565b905092915050565b600080600084815260200190815260200160002060000160008373ffffffffffffffffffffffffffffffffffffffff1673ffffffffffffffffffffffffffffffffffffffff16815260200190815260200160002060009054906101000a900460ff16905092915050565b606060038054610eef9061360e565b80601f0160208091040260200160405190810160405280929190818152602001828054610f1b9061360e565b8015610f685780601f10610f3d57610100808354040283529160200191610f68565b820191906000526020600020905b815481529060010190602001808311610f4b57829003601f168201915b5050505050905090565b6000801b81565b610f8161145b565b73ffffffffffffffffffffffffffffffffffffffff168273ffffffffffffffffffffffffffffffffffffffff161415610fef576040517f08c379a0000000000000000000000000000000000000000000000000000000008152600401610fe690613d93565b60405180910390fd5b8060076000610ffc61145b565b73ffffffffffffffffffffffffffffffffffffffff1673ffffffffffffffffffffffffffffffffffffffff16815260200190815260200160002060008473ffffffffffffffffffffffffffffffffffffffff1673ffffffffffffffffffffffffffffffffffffffff16815260200190815260200160002060006101000a81548160ff0219169083151502179055508173ffffffffffffffffffffffffffffffffffffffff166110a961145b565b73ffffffffffffffffffffffffffffffffffffffff167f17307eab39ab6107e8899845ad3d59bd9653f200f220920489ca2b5937696c31836040516110ee9190612fc3565b60405180910390a35050565b61110b61110561145b565b8361151c565b61114a576040517f08c379a000000000000000000000000000000000000000000000000000000000815260040161114190613868565b60405180910390fd5b61115684848484611d94565b50505050565b6060611167826113ef565b6111a6576040517f08c379a000000000000000000000000000000000000000000000000000000000815260040161119d90613e25565b60405180910390fd5b60006111b0611df0565b905060008151116111d057604051806020016040528060008152506111fb565b806111da84611e82565b6040516020016111eb929190613e81565b6040516020818303038152906040525b915050919050565b600061122060016000848152602001908152602001600020611fe3565b9050919050565b7f9f2df0fed2c77648de5860a4cc508cd0818c85b8b8a1ab4ceeef8d981c8956a681565b6112558282611ff8565b61127a816001600085815260200190815260200160002061190290919063ffffffff16565b505050565b7f65d7a28e3265b37a6474929f336521b332c1681b933f6cb9f3376673440d862a81565b6000600760008473ffffffffffffffffffffffffffffffffffffffff1673ffffffffffffffffffffffffffffffffffffffff16815260200190815260200160002060008373ffffffffffffffffffffffffffffffffffffffff1673ffffffffffffffffffffffffffffffffffffffff16815260200190815260200160002060009054906101000a900460ff16905092915050565b6113418282612021565b5050565b600061136d836000018373ffffffffffffffffffffffffffffffffffffffff1660001b612101565b905092915050565b60007f780e9d63000000000000000000000000000000000000000000000000000000007bffffffffffffffffffffffffffffffffffffffffffffffffffffffff1916827bffffffffffffffffffffffffffffffffffffffffffffffffffffffff191614806113e857506113e782612171565b5b9050919050565b60008073ffffffffffffffffffffffffffffffffffffffff166004600084815260200190815260200160002060009054906101000a900473ffffffffffffffffffffffffffffffffffffffff1673ffffffffffffffffffffffffffffffffffffffff1614159050919050565b600033905090565b816006600083815260200190815260200160002060006101000a81548173ffffffffffffffffffffffffffffffffffffffff021916908373ffffffffffffffffffffffffffffffffffffffff160217905550808273ffffffffffffffffffffffffffffffffffffffff166114d683610ba9565b73ffffffffffffffffffffffffffffffffffffffff167f8c5be1e5ebec7d5bd14f71427d1e84f3dd0314c0f7b2291e5b200ac8c7c3b92560405160405180910390a45050565b6000611527826113ef565b611566576040517f08c379a000000000000000000000000000000000000000000000000000000000815260040161155d90613f17565b60405180910390fd5b600061157183610ba9565b90508073ffffffffffffffffffffffffffffffffffffffff168473ffffffffffffffffffffffffffffffffffffffff1614806115e057508373ffffffffffffffffffffffffffffffffffffffff166115c8846106f5565b73ffffffffffffffffffffffffffffffffffffffff16145b806115f157506115f081856112a3565b5b91505092915050565b8273ffffffffffffffffffffffffffffffffffffffff1661161a82610ba9565b73ffffffffffffffffffffffffffffffffffffffff1614611670576040517f08c379a000000000000000000000000000000000000000000000000000000000815260040161166790613fa9565b60405180910390fd5b600073ffffffffffffffffffffffffffffffffffffffff168273ffffffffffffffffffffffffffffffffffffffff1614156116e0576040517f08c379a00000000000000000000000000000000000000000000000000000000081526004016116d79061403b565b60405180910390fd5b6116eb838383612253565b6116f6600082611463565b6001600560008573ffffffffffffffffffffffffffffffffffffffff1673ffffffffffffffffffffffffffffffffffffffff1681526020019081526020016000206000828254611746919061408a565b925050819055506001600560008473ffffffffffffffffffffffffffffffffffffffff1673ffffffffffffffffffffffffffffffffffffffff168152602001908152602001600020600082825461179d91906140be565b92505081905550816004600083815260200190815260200160002060006101000a81548173ffffffffffffffffffffffffffffffffffffffff021916908373ffffffffffffffffffffffffffffffffffffffff160217905550808273ffffffffffffffffffffffffffffffffffffffff168473ffffffffffffffffffffffffffffffffffffffff167fddf252ad1be2c89b69c2b068fc378daa952ba7f163c4a11628f55a4df523b3ef60405160405180910390a4505050565b61185f826108ff565b6118708161186b61145b565b612263565b61187a8383612021565b505050565b61188761145b565b73ffffffffffffffffffffffffffffffffffffffff168173ffffffffffffffffffffffffffffffffffffffff16146118f4576040517f08c379a00000000000000000000000000000000000000000000000000000000081526004016118eb90614186565b60405180910390fd5b6118fe8282612300565b5050565b600061192a836000018373ffffffffffffffffffffffffffffffffffffffff1660001b6123e1565b905092915050565b61193a610b92565b611979576040517f08c379a0000000000000000000000000000000000000000000000000000000008152600401611970906141f2565b60405180910390fd5b6000600c60006101000a81548160ff0219169083151502179055507f5db9ee0a495bf2e6ff9c91a7834c1ba4fdd244a5e8aa4e537bd38aeae4b073aa6119bd61145b565b6040516119ca919061313d565b60405180910390a1565b60006119df82610ba9565b90506119ed81600084612253565b6119f8600083611463565b6001600560008373ffffffffffffffffffffffffffffffffffffffff1673ffffffffffffffffffffffffffffffffffffffff1681526020019081526020016000206000828254611a48919061408a565b925050819055506004600083815260200190815260200160002060006101000a81549073ffffffffffffffffffffffffffffffffffffffff021916905581600073ffffffffffffffffffffffffffffffffffffffff168273ffffffffffffffffffffffffffffffffffffffff167fddf252ad1be2c89b69c2b068fc378daa952ba7f163c4a11628f55a4df523b3ef60405160405180910390a45050565b600081600001549050919050565b600073ffffffffffffffffffffffffffffffffffffffff168273ffffffffffffffffffffffffffffffffffffffff161415611b63576040517f08c379a0000000000000000000000000000000000000000000000000000000008152600401611b5a9061425e565b60405180910390fd5b611b6c816113ef565b15611bac576040517f08c379a0000000000000000000000000000000000000000000000000000000008152600401611ba3906142ca565b60405180910390fd5b611bb860008383612253565b6001600560008473ffffffffffffffffffffffffffffffffffffffff1673ffffffffffffffffffffffffffffffffffffffff1681526020019081526020016000206000828254611c0891906140be565b92505081905550816004600083815260200190815260200160002060006101000a81548173ffffffffffffffffffffffffffffffffffffffff021916908373ffffffffffffffffffffffffffffffffffffffff160217905550808273ffffffffffffffffffffffffffffffffffffffff16600073ffffffffffffffffffffffffffffffffffffffff167fddf252ad1be2c89b69c2b068fc378daa952ba7f163c4a11628f55a4df523b3ef60405160405180910390a45050565b6001816000016000828254019250508190555050565b611cdf610b92565b15611d1f576040517f08c379a0000000000000000000000000000000000000000000000000000000008152600401611d1690614336565b60405180910390fd5b6001600c60006101000a81548160ff0219169083151502179055507f62e78cea01bee320cd4e420270b5ea74000d11b0c9f74754ebdbfc544b05a258611d6361145b565b604051611d70919061313d565b60405180910390a1565b6000611d8983600001836124f5565b60001c905092915050565b611d9f8484846115fa565b611dab84848484612520565b611dea576040517f08c379a0000000000000000000000000000000000000000000000000000000008152600401611de1906143c8565b60405180910390fd5b50505050565b6060600e8054611dff9061360e565b80601f0160208091040260200160405190810160405280929190818152602001828054611e2b9061360e565b8015611e785780601f10611e4d57610100808354040283529160200191611e78565b820191906000526020600020905b815481529060010190602001808311611e5b57829003601f168201915b5050505050905090565b60606000821415611eca576040518060400160405280600181526020017f30000000000000000000000000000000000000000000000000000000000000008152509050611fde565b600082905060005b60008214611efc578080611ee5906143e8565b915050600a82611ef59190614460565b9150611ed2565b60008167ffffffffffffffff811115611f1857611f176133f1565b5b6040519080825280601f01601f191660200182016040528015611f4a5781602001600182028036833780820191505090505b5090505b60008514611fd757600182611f63919061408a565b9150600a85611f729190614491565b6030611f7e91906140be565b60f81b818381518110611f9457611f93613ad0565b5b60200101907effffffffffffffffffffffffffffffffffffffffffffffffffffffffffffff1916908160001a905350600a85611fd09190614460565b9450611f4e565b8093505050505b919050565b6000611ff1826000016126b7565b9050919050565b612001826108ff565b6120128161200d61145b565b612263565b61201c8383612300565b505050565b61202b8282610e76565b6120fd57600160008084815260200190815260200160002060000160008373ffffffffffffffffffffffffffffffffffffffff1673ffffffffffffffffffffffffffffffffffffffff16815260200190815260200160002060006101000a81548160ff0219169083151502179055506120a261145b565b73ffffffffffffffffffffffffffffffffffffffff168173ffffffffffffffffffffffffffffffffffffffff16837f2f8788117e7eff1d82e926ec794901d17c78024a50270940304540a733656f0d60405160405180910390a45b5050565b600061210d83836126c8565b61216657826000018290806001815401808255809150506001900390600052602060002001600090919091909150558260000180549050836001016000848152602001908152602001600020819055506001905061216b565b600090505b92915050565b60007f80ac58cd000000000000000000000000000000000000000000000000000000007bffffffffffffffffffffffffffffffffffffffffffffffffffffffff1916827bffffffffffffffffffffffffffffffffffffffffffffffffffffffff1916148061223c57507f5b5e139f000000000000000000000000000000000000000000000000000000007bffffffffffffffffffffffffffffffffffffffffffffffffffffffff1916827bffffffffffffffffffffffffffffffffffffffffffffffffffffffff1916145b8061224c575061224b826126eb565b5b9050919050565b61225e838383612765565b505050565b61226d8282610e76565b6122fc576122928173ffffffffffffffffffffffffffffffffffffffff1660146127bd565b6122a08360001c60206127bd565b6040516020016122b192919061455a565b6040516020818303038152906040526040517f08c379a00000000000000000000000000000000000000000000000000000000081526004016122f39190613077565b60405180910390fd5b5050565b61230a8282610e76565b156123dd57600080600084815260200190815260200160002060000160008373ffffffffffffffffffffffffffffffffffffffff1673ffffffffffffffffffffffffffffffffffffffff16815260200190815260200160002060006101000a81548160ff02191690831515021790555061238261145b565b73ffffffffffffffffffffffffffffffffffffffff168173ffffffffffffffffffffffffffffffffffffffff16837ff6391f5c32d9c69d2a47ea670b442974b53935d1edc7fd64eb21e047a839171b60405160405180910390a45b5050565b600080836001016000848152602001908152602001600020549050600081146124e9576000600182612413919061408a565b905060006001866000018054905061242b919061408a565b905081811461249a57600086600001828154811061244c5761244b613ad0565b5b90600052602060002001549050808760000184815481106124705761246f613ad0565b5b90600052602060002001819055508387600101600083815260200190815260200160002081905550505b856000018054806124ae576124ad614594565b5b6001900381819060005260206000200160009055905585600101600086815260200190815260200160002060009055600193505050506124ef565b60009150505b92915050565b600082600001828154811061250d5761250c613ad0565b5b9060005260206000200154905092915050565b60006125418473ffffffffffffffffffffffffffffffffffffffff166129f9565b156126aa578373ffffffffffffffffffffffffffffffffffffffff1663150b7a0261256a61145b565b8786866040518563ffffffff1660e01b815260040161258c9493929190614618565b602060405180830381600087803b1580156125a657600080fd5b505af19250505080156125d757506040513d601f19601f820116820180604052508101906125d49190614679565b60015b61265a573d8060008114612607576040519150601f19603f3d011682016040523d82523d6000602084013e61260c565b606091505b50600081511415612652576040517f08c379a0000000000000000000000000000000000000000000000000000000008152600401612649906143c8565b60405180910390fd5b805181602001fd5b63150b7a0260e01b7bffffffffffffffffffffffffffffffffffffffffffffffffffffffff1916817bffffffffffffffffffffffffffffffffffffffffffffffffffffffff1916149150506126af565b600190505b949350505050565b600081600001805490509050919050565b600080836001016000848152602001908152602001600020541415905092915050565b60007f5a05180f000000000000000000000000000000000000000000000000000000007bffffffffffffffffffffffffffffffffffffffffffffffffffffffff1916827bffffffffffffffffffffffffffffffffffffffffffffffffffffffff1916148061275e575061275d82612a0c565b5b9050919050565b612770838383612a86565b612778610b92565b156127b8576040517f08c379a00000000000000000000000000000000000000000000000000000000081526004016127af90614718565b60405180910390fd5b505050565b6060600060028360026127d09190614738565b6127da91906140be565b67ffffffffffffffff8111156127f3576127f26133f1565b5b6040519080825280601f01601f1916602001820160405280156128255781602001600182028036833780820191505090505b5090507f30000000000000000000000000000000000000000000000000000000000000008160008151811061285d5761285c613ad0565b5b60200101907effffffffffffffffffffffffffffffffffffffffffffffffffffffffffffff1916908160001a9053507f7800000000000000000000000000000000000000000000000000000000000000816001815181106128c1576128c0613ad0565b5b60200101907effffffffffffffffffffffffffffffffffffffffffffffffffffffffffffff1916908160001a905350600060018460026129019190614738565b61290b91906140be565b90505b60018111156129ab577f3031323334353637383961626364656600000000000000000000000000000000600f86166010811061294d5761294c613ad0565b5b1a60f81b82828151811061296457612963613ad0565b5b60200101907effffffffffffffffffffffffffffffffffffffffffffffffffffffffffffff1916908160001a905350600485901c9450806129a490614792565b905061290e565b50600084146129ef576040517f08c379a00000000000000000000000000000000000000000000000000000000081526004016129e690614808565b60405180910390fd5b8091505092915050565b600080823b905060008111915050919050565b60007f7965db0b000000000000000000000000000000000000000000000000000000007bffffffffffffffffffffffffffffffffffffffffffffffffffffffff1916827bffffffffffffffffffffffffffffffffffffffffffffffffffffffff19161480612a7f5750612a7e82612b9a565b5b9050919050565b612a91838383612c04565b600073ffffffffffffffffffffffffffffffffffffffff168373ffffffffffffffffffffffffffffffffffffffff161415612ad457612acf81612c09565b612b13565b8173ffffffffffffffffffffffffffffffffffffffff168373ffffffffffffffffffffffffffffffffffffffff1614612b1257612b118382612c52565b5b5b600073ffffffffffffffffffffffffffffffffffffffff168273ffffffffffffffffffffffffffffffffffffffff161415612b5657612b5181612dbf565b612b95565b8273ffffffffffffffffffffffffffffffffffffffff168273ffffffffffffffffffffffffffffffffffffffff1614612b9457612b938282612e90565b5b5b505050565b60007f01ffc9a7000000000000000000000000000000000000000000000000000000007bffffffffffffffffffffffffffffffffffffffffffffffffffffffff1916827bffffffffffffffffffffffffffffffffffffffffffffffffffffffff1916149050919050565b505050565b600a80549050600b600083815260200190815260200160002081905550600a81908060018154018082558091505060019003906000526020600020016000909190919091505550565b60006001612c5f84610ceb565b612c69919061408a565b9050600060096000848152602001908152602001600020549050818114612d4e576000600860008673ffffffffffffffffffffffffffffffffffffffff1673ffffffffffffffffffffffffffffffffffffffff168152602001908152602001600020600084815260200190815260200160002054905080600860008773ffffffffffffffffffffffffffffffffffffffff1673ffffffffffffffffffffffffffffffffffffffff168152602001908152602001600020600084815260200190815260200160002081905550816009600083815260200190815260200160002081905550505b6009600084815260200190815260200160002060009055600860008573ffffffffffffffffffffffffffffffffffffffff1673ffffffffffffffffffffffffffffffffffffffff16815260200190815260200160002060008381526020019081526020016000206000905550505050565b60006001600a80549050612dd3919061408a565b90506000600b60008481526020019081526020016000205490506000600a8381548110612e0357612e02613ad0565b5b9060005260206000200154905080600a8381548110612e2557612e24613ad0565b5b906000526020600020018190555081600b600083815260200190815260200160002081905550600b600085815260200190815260200160002060009055600a805480612e7457612e73614594565b5b6001900381819060005260206000200160009055905550505050565b6000612e9b83610ceb565b905081600860008573ffffffffffffffffffffffffffffffffffffffff1673ffffffffffffffffffffffffffffffffffffffff168152602001908152602001600020600083815260200190815260200160002081905550806009600084815260200190815260200160002081905550505050565b6000604051905090565b600080fd5b600080fd5b60007fffffffff0000000000000000000000000000000000000000000000000000000082169050919050565b612f5881612f23565b8114612f6357600080fd5b50565b600081359050612f7581612f4f565b92915050565b600060208284031215612f9157612f90612f19565b5b6000612f9f84828501612f66565b91505092915050565b60008115159050919050565b612fbd81612fa8565b82525050565b6000602082019050612fd86000830184612fb4565b92915050565b600081519050919050565b600082825260208201905092915050565b60005b83811015613018578082015181840152602081019050612ffd565b83811115613027576000848401525b50505050565b6000601f19601f8301169050919050565b600061304982612fde565b6130538185612fe9565b9350613063818560208601612ffa565b61306c8161302d565b840191505092915050565b60006020820190508181036000830152613091818461303e565b905092915050565b6000819050919050565b6130ac81613099565b81146130b757600080fd5b50565b6000813590506130c9816130a3565b92915050565b6000602082840312156130e5576130e4612f19565b5b60006130f3848285016130ba565b91505092915050565b600073ffffffffffffffffffffffffffffffffffffffff82169050919050565b6000613127826130fc565b9050919050565b6131378161311c565b82525050565b6000602082019050613152600083018461312e565b92915050565b6131618161311c565b811461316c57600080fd5b50565b60008135905061317e81613158565b92915050565b6000806040838503121561319b5761319a612f19565b5b60006131a98582860161316f565b92505060206131ba858286016130ba565b9150509250929050565b6131cd81613099565b82525050565b60006020820190506131e860008301846131c4565b92915050565b60008060006060848603121561320757613206612f19565b5b60006132158682870161316f565b93505060206132268682870161316f565b9250506040613237868287016130ba565b9150509250925092565b6000819050919050565b61325481613241565b811461325f57600080fd5b50565b6000813590506132718161324b565b92915050565b60006020828403121561328d5761328c612f19565b5b600061329b84828501613262565b91505092915050565b6132ad81613241565b82525050565b60006020820190506132c860008301846132a4565b92915050565b600080604083850312156132e5576132e4612f19565b5b60006132f385828601613262565b92505060206133048582860161316f565b9150509250929050565b60006020828403121561332457613323612f19565b5b60006133328482850161316f565b91505092915050565b6000806040838503121561335257613351612f19565b5b600061336085828601613262565b9250506020613371858286016130ba565b9150509250929050565b61338481612fa8565b811461338f57600080fd5b50565b6000813590506133a18161337b565b92915050565b600080604083850312156133be576133bd612f19565b5b60006133cc8582860161316f565b92505060206133dd85828601613392565b9150509250929050565b600080fd5b600080fd5b7f4e487b7100000000000000000000000000000000000000000000000000000000600052604160045260246000fd5b6134298261302d565b810181811067ffffffffffffffff82111715613448576134476133f1565b5b80604052505050565b600061345b612f0f565b90506134678282613420565b919050565b600067ffffffffffffffff821115613487576134866133f1565b5b6134908261302d565b9050602081019050919050565b82818337600083830152505050565b60006134bf6134ba8461346c565b613451565b9050828152602081018484840111156134db576134da6133ec565b5b6134e684828561349d565b509392505050565b600082601f830112613503576135026133e7565b5b81356135138482602086016134ac565b91505092915050565b6000806000806080858703121561353657613535612f19565b5b60006135448782880161316f565b94505060206135558782880161316f565b9350506040613566878288016130ba565b925050606085013567ffffffffffffffff81111561358757613586612f1e565b5b613593878288016134ee565b91505092959194509250565b600080604083850312156135b6576135b5612f19565b5b60006135c48582860161316f565b92505060206135d58582860161316f565b9150509250929050565b7f4e487b7100000000000000000000000000000000000000000000000000000000600052602260045260246000fd5b6000600282049050600182168061362657607f821691505b6020821081141561363a576136396135df565b5b50919050565b7f4552433732313a20617070726f76656420717565727920666f72206e6f6e657860008201527f697374656e7420746f6b656e0000000000000000000000000000000000000000602082015250565b600061369c602c83612fe9565b91506136a782613640565b604082019050919050565b600060208201905081810360008301526136cb8161368f565b9050919050565b7f4552433732313a20617070726f76616c20746f2063757272656e74206f776e6560008201527f7200000000000000000000000000000000000000000000000000000000000000602082015250565b600061372e602183612fe9565b9150613739826136d2565b604082019050919050565b6000602082019050818103600083015261375d81613721565b9050919050565b7f4552433732313a20617070726f76652063616c6c6572206973206e6f74206f7760008201527f6e6572206e6f7220617070726f76656420666f7220616c6c0000000000000000602082015250565b60006137c0603883612fe9565b91506137cb82613764565b604082019050919050565b600060208201905081810360008301526137ef816137b3565b9050919050565b7f4552433732313a207472616e736665722063616c6c6572206973206e6f74206f60008201527f776e6572206e6f7220617070726f766564000000000000000000000000000000602082015250565b6000613852603183612fe9565b915061385d826137f6565b604082019050919050565b6000602082019050818103600083015261388181613845565b9050919050565b7f455243373231456e756d657261626c653a206f776e657220696e646578206f7560008201527f74206f6620626f756e6473000000000000000000000000000000000000000000602082015250565b60006138e4602b83612fe9565b91506138ef82613888565b604082019050919050565b60006020820190508181036000830152613913816138d7565b9050919050565b7f4552433732315072657365744d696e7465725061757365724175746f49643a2060008201527f6d75737420686176652070617573657220726f6c6520746f20756e7061757365602082015250565b6000613976604083612fe9565b91506139818261391a565b604082019050919050565b600060208201905081810360008301526139a581613969565b9050919050565b7f4552433732314275726e61626c653a2063616c6c6572206973206e6f74206f7760008201527f6e6572206e6f7220617070726f76656400000000000000000000000000000000602082015250565b6000613a08603083612fe9565b9150613a13826139ac565b604082019050919050565b60006020820190508181036000830152613a37816139fb565b9050919050565b7f455243373231456e756d657261626c653a20676c6f62616c20696e646578206f60008201527f7574206f6620626f756e64730000000000000000000000000000000000000000602082015250565b6000613a9a602c83612fe9565b9150613aa582613a3e565b604082019050919050565b60006020820190508181036000830152613ac981613a8d565b9050919050565b7f4e487b7100000000000000000000000000000000000000000000000000000000600052603260045260246000fd5b7f4552433732313a206f776e657220717565727920666f72206e6f6e657869737460008201527f656e7420746f6b656e0000000000000000000000000000000000000000000000602082015250565b6000613b5b602983612fe9565b9150613b6682613aff565b604082019050919050565b60006020820190508181036000830152613b8a81613b4e565b9050919050565b7f4552433732315072657365744d696e7465725061757365724175746f49643a2060008201527f6d7573742068617665206d696e74657220726f6c6520746f206d696e74000000602082015250565b6000613bed603d83612fe9565b9150613bf882613b91565b604082019050919050565b60006020820190508181036000830152613c1c81613be0565b9050919050565b7f4552433732313a2062616c616e636520717565727920666f7220746865207a6560008201527f726f206164647265737300000000000000000000000000000000000000000000602082015250565b6000613c7f602a83612fe9565b9150613c8a82613c23565b604082019050919050565b60006020820190508181036000830152613cae81613c72565b9050919050565b7f4552433732315072657365744d696e7465725061757365724175746f49643a2060008201527f6d75737420686176652070617573657220726f6c6520746f2070617573650000602082015250565b6000613d11603e83612fe9565b9150613d1c82613cb5565b604082019050919050565b60006020820190508181036000830152613d4081613d04565b9050919050565b7f4552433732313a20617070726f766520746f2063616c6c657200000000000000600082015250565b6000613d7d601983612fe9565b9150613d8882613d47565b602082019050919050565b60006020820190508181036000830152613dac81613d70565b9050919050565b7f4552433732314d657461646174613a2055524920717565727920666f72206e6f60008201527f6e6578697374656e7420746f6b656e0000000000000000000000000000000000602082015250565b6000613e0f602f83612fe9565b9150613e1a82613db3565b604082019050919050565b60006020820190508181036000830152613e3e81613e02565b9050919050565b600081905092915050565b6000613e5b82612fde565b613e658185613e45565b9350613e75818560208601612ffa565b80840191505092915050565b6000613e8d8285613e50565b9150613e998284613e50565b91508190509392505050565b7f4552433732313a206f70657261746f7220717565727920666f72206e6f6e657860008201527f697374656e7420746f6b656e0000000000000000000000000000000000000000602082015250565b6000613f01602c83612fe9565b9150613f0c82613ea5565b604082019050919050565b60006020820190508181036000830152613f3081613ef4565b9050919050565b7f4552433732313a207472616e73666572206f6620746f6b656e2074686174206960008201527f73206e6f74206f776e0000000000000000000000000000000000000000000000602082015250565b6000613f93602983612fe9565b9150613f9e82613f37565b604082019050919050565b60006020820190508181036000830152613fc281613f86565b9050919050565b7f4552433732313a207472616e7366657220746f20746865207a65726f2061646460008201527f7265737300000000000000000000000000000000000000000000000000000000602082015250565b6000614025602483612fe9565b915061403082613fc9565b604082019050919050565b6000602082019050818103600083015261405481614018565b9050919050565b7f4e487b7100000000000000000000000000000000000000000000000000000000600052601160045260246000fd5b600061409582613099565b91506140a083613099565b9250828210156140b3576140b261405b565b5b828203905092915050565b60006140c982613099565b91506140d483613099565b9250827fffffffffffffffffffffffffffffffffffffffffffffffffffffffffffffffff038211156141095761410861405b565b5b828201905092915050565b7f416363657373436f6e74726f6c3a2063616e206f6e6c792072656e6f756e636560008201527f20726f6c657320666f722073656c660000000000000000000000000000000000602082015250565b6000614170602f83612fe9565b915061417b82614114565b604082019050919050565b6000602082019050818103600083015261419f81614163565b9050919050565b7f5061757361626c653a206e6f7420706175736564000000000000000000000000600082015250565b60006141dc601483612fe9565b91506141e7826141a6565b602082019050919050565b6000602082019050818103600083015261420b816141cf565b9050919050565b7f4552433732313a206d696e7420746f20746865207a65726f2061646472657373600082015250565b6000614248602083612fe9565b915061425382614212565b602082019050919050565b600060208201905081810360008301526142778161423b565b9050919050565b7f4552433732313a20746f6b656e20616c7265616479206d696e74656400000000600082015250565b60006142b4601c83612fe9565b91506142bf8261427e565b602082019050919050565b600060208201905081810360008301526142e3816142a7565b9050919050565b7f5061757361626c653a2070617573656400000000000000000000000000000000600082015250565b6000614320601083612fe9565b915061432b826142ea565b602082019050919050565b6000602082019050818103600083015261434f81614313565b9050919050565b7f4552433732313a207472616e7366657220746f206e6f6e20455243373231526560008201527f63656976657220696d706c656d656e7465720000000000000000000000000000602082015250565b60006143b2603283612fe9565b91506143bd82614356565b604082019050919050565b600060208201905081810360008301526143e1816143a5565b9050919050565b60006143f382613099565b91507fffffffffffffffffffffffffffffffffffffffffffffffffffffffffffffffff8214156144265761442561405b565b5b600182019050919050565b7f4e487b7100000000000000000000000000000000000000000000000000000000600052601260045260246000fd5b600061446b82613099565b915061447683613099565b92508261448657614485614431565b5b828204905092915050565b600061449c82613099565b91506144a783613099565b9250826144b7576144b6614431565b5b828206905092915050565b7f416363657373436f6e74726f6c3a206163636f756e7420000000000000000000600082015250565b60006144f8601783613e45565b9150614503826144c2565b601782019050919050565b7f206973206d697373696e6720726f6c6520000000000000000000000000000000600082015250565b6000614544601183613e45565b915061454f8261450e565b601182019050919050565b6000614565826144eb565b91506145718285613e50565b915061457c82614537565b91506145888284613e50565b91508190509392505050565b7f4e487b7100000000000000000000000000000000000000000000000000000000600052603160045260246000fd5b600081519050919050565b600082825260208201905092915050565b60006145ea826145c3565b6145f481856145ce565b9350614604818560208601612ffa565b61460d8161302d565b840191505092915050565b600060808201905061462d600083018761312e565b61463a602083018661312e565b61464760408301856131c4565b818103606083015261465981846145df565b905095945050505050565b60008151905061467381612f4f565b92915050565b60006020828403121561468f5761468e612f19565b5b600061469d84828501614664565b91505092915050565b7f4552433732315061757361626c653a20746f6b656e207472616e73666572207760008201527f68696c6520706175736564000000000000000000000000000000000000000000602082015250565b6000614702602b83612fe9565b915061470d826146a6565b604082019050919050565b60006020820190508181036000830152614731816146f5565b9050919050565b600061474382613099565b915061474e83613099565b9250817fffffffffffffffffffffffffffffffffffffffffffffffffffffffffffffffff04831182151516156147875761478661405b565b5b828202905092915050565b600061479d82613099565b915060008214156147b1576147b061405b565b5b600182039050919050565b7f537472696e67733a20686578206c656e67746820696e73756666696369656e74600082015250565b60006147f2602083612fe9565b91506147fd826147bc565b602082019050919050565b60006020820190508181036000830152614821816147e5565b905091905056fea264697066735822122057d17d2d67f9f2577ed03a8689bbb06d102b1c55a2074252c0fce238dc166bf964736f6c6343000809003368747470733a2f2f73332d75732d776573742d322e616d617a6f6e6177732e636f6d2f756461636974792d626c6f636b636861696e2f63617073746f6e652f",
  "immutableReferences": {},
  "source": "// SPDX-License-Identifier: MIT\npragma solidity ^0.8.9;\n\nimport \"@openzeppelin/contracts/token/ERC721/presets/ERC721PresetMinterPauserAutoId.sol\";\n\ncontract ERC721Mintable is ERC721PresetMinterPauserAutoId {\n    address private _owner;\n\n    constructor(string memory name, string memory symbol)\n        ERC721PresetMinterPauserAutoId(\n            name,\n            symbol,\n            \"https://s3-us-west-2.amazonaws.com/udacity-blockchain/capstone/\"\n        )\n    {\n        _owner = msg.sender;\n    }\n\n    function getOwner() public view returns (address) {\n        return _owner;\n    }\n}\n",
  "sourcePath": "/Users/peizhao/Projects/Blockchain/Blockchain-Capstone/eth-contracts/contracts/ERC721Mintable.sol",
  "compiler": {
    "name": "solc",
    "version": "0.8.9+commit.e5eed63a.Emscripten.clang"
  },
  "schemaVersion": "3.4.3",
  "updatedAt": "2021-10-24T04:11:16.252Z",
  "devdoc": {
    "kind": "dev",
    "methods": {
      "approve(address,uint256)": {
        "details": "See {IERC721-approve}."
      },
      "balanceOf(address)": {
        "details": "See {IERC721-balanceOf}."
      },
      "burn(uint256)": {
        "details": "Burns `tokenId`. See {ERC721-_burn}. Requirements: - The caller must own `tokenId` or be an approved operator."
      },
      "getApproved(uint256)": {
        "details": "See {IERC721-getApproved}."
      },
      "getRoleAdmin(bytes32)": {
        "details": "Returns the admin role that controls `role`. See {grantRole} and {revokeRole}. To change a role's admin, use {_setRoleAdmin}."
      },
      "getRoleMember(bytes32,uint256)": {
        "details": "Returns one of the accounts that have `role`. `index` must be a value between 0 and {getRoleMemberCount}, non-inclusive. Role bearers are not sorted in any particular way, and their ordering may change at any point. WARNING: When using {getRoleMember} and {getRoleMemberCount}, make sure you perform all queries on the same block. See the following https://forum.openzeppelin.com/t/iterating-over-elements-on-enumerableset-in-openzeppelin-contracts/2296[forum post] for more information."
      },
      "getRoleMemberCount(bytes32)": {
        "details": "Returns the number of accounts that have `role`. Can be used together with {getRoleMember} to enumerate all bearers of a role."
      },
      "grantRole(bytes32,address)": {
        "details": "Overload {grantRole} to track enumerable memberships"
      },
      "hasRole(bytes32,address)": {
        "details": "Returns `true` if `account` has been granted `role`."
      },
      "isApprovedForAll(address,address)": {
        "details": "See {IERC721-isApprovedForAll}."
      },
      "mint(address)": {
        "details": "Creates a new token for `to`. Its token ID will be automatically assigned (and available on the emitted {IERC721-Transfer} event), and the token URI autogenerated based on the base URI passed at construction. See {ERC721-_mint}. Requirements: - the caller must have the `MINTER_ROLE`."
      },
      "name()": {
        "details": "See {IERC721Metadata-name}."
      },
      "ownerOf(uint256)": {
        "details": "See {IERC721-ownerOf}."
      },
      "pause()": {
        "details": "Pauses all token transfers. See {ERC721Pausable} and {Pausable-_pause}. Requirements: - the caller must have the `PAUSER_ROLE`."
      },
      "paused()": {
        "details": "Returns true if the contract is paused, and false otherwise."
      },
      "renounceRole(bytes32,address)": {
        "details": "Overload {renounceRole} to track enumerable memberships"
      },
      "revokeRole(bytes32,address)": {
        "details": "Overload {revokeRole} to track enumerable memberships"
      },
      "safeTransferFrom(address,address,uint256)": {
        "details": "See {IERC721-safeTransferFrom}."
      },
      "safeTransferFrom(address,address,uint256,bytes)": {
        "details": "See {IERC721-safeTransferFrom}."
      },
      "setApprovalForAll(address,bool)": {
        "details": "See {IERC721-setApprovalForAll}."
      },
      "supportsInterface(bytes4)": {
        "details": "See {IERC165-supportsInterface}."
      },
      "symbol()": {
        "details": "See {IERC721Metadata-symbol}."
      },
      "tokenByIndex(uint256)": {
        "details": "See {IERC721Enumerable-tokenByIndex}."
      },
      "tokenOfOwnerByIndex(address,uint256)": {
        "details": "See {IERC721Enumerable-tokenOfOwnerByIndex}."
      },
      "tokenURI(uint256)": {
        "details": "See {IERC721Metadata-tokenURI}."
      },
      "totalSupply()": {
        "details": "See {IERC721Enumerable-totalSupply}."
      },
      "transferFrom(address,address,uint256)": {
        "details": "See {IERC721-transferFrom}."
      },
      "unpause()": {
        "details": "Unpauses all token transfers. See {ERC721Pausable} and {Pausable-_unpause}. Requirements: - the caller must have the `PAUSER_ROLE`."
      }
    },
    "version": 1
  },
  "userdoc": {
    "kind": "user",
    "methods": {},
    "version": 1
  }
}