{
  "contractName": "SolnSquareVerifier",
  "abi": [
    {
      "inputs": [],
      "stateMutability": "nonpayable",
      "type": "constructor"
    },
    {
      "anonymous": false,
      "inputs": [
        {
          "indexed": true,
          "internalType": "address",
          "name": "owner",
          "type": "address"
        },
        {
          "indexed": true,
          "internalType": "address",
          "name": "approved",
          "type": "address"
        },
        {
          "indexed": true,
          "internalType": "uint256",
          "name": "tokenId",
          "type": "uint256"
        }
      ],
      "name": "Approval",
      "type": "event"
    },
    {
      "anonymous": false,
      "inputs": [
        {
          "indexed": true,
          "internalType": "address",
          "name": "owner",
          "type": "address"
        },
        {
          "indexed": true,
          "internalType": "address",
          "name": "operator",
          "type": "address"
        },
        {
          "indexed": false,
          "internalType": "bool",
          "name": "approved",
          "type": "bool"
        }
      ],
      "name": "ApprovalForAll",
      "type": "event"
    },
    {
      "anonymous": false,
      "inputs": [
        {
          "indexed": false,
          "internalType": "address",
          "name": "account",
          "type": "address"
        }
      ],
      "name": "Paused",
      "type": "event"
    },
    {
      "anonymous": false,
      "inputs": [
        {
          "indexed": true,
          "internalType": "bytes32",
          "name": "role",
          "type": "bytes32"
        },
        {
          "indexed": true,
          "internalType": "bytes32",
          "name": "previousAdminRole",
          "type": "bytes32"
        },
        {
          "indexed": true,
          "internalType": "bytes32",
          "name": "newAdminRole",
          "type": "bytes32"
        }
      ],
      "name": "RoleAdminChanged",
      "type": "event"
    },
    {
      "anonymous": false,
      "inputs": [
        {
          "indexed": true,
          "internalType": "bytes32",
          "name": "role",
          "type": "bytes32"
        },
        {
          "indexed": true,
          "internalType": "address",
          "name": "account",
          "type": "address"
        },
        {
          "indexed": true,
          "internalType": "address",
          "name": "sender",
          "type": "address"
        }
      ],
      "name": "RoleGranted",
      "type": "event"
    },
    {
      "anonymous": false,
      "inputs": [
        {
          "indexed": true,
          "internalType": "bytes32",
          "name": "role",
          "type": "bytes32"
        },
        {
          "indexed": true,
          "internalType": "address",
          "name": "account",
          "type": "address"
        },
        {
          "indexed": true,
          "internalType": "address",
          "name": "sender",
          "type": "address"
        }
      ],
      "name": "RoleRevoked",
      "type": "event"
    },
    {
      "anonymous": false,
      "inputs": [
        {
          "indexed": false,
          "internalType": "bytes32",
          "name": "key",
          "type": "bytes32"
        },
        {
          "indexed": false,
          "internalType": "uint256",
          "name": "tokenId",
          "type": "uint256"
        }
      ],
      "name": "SolutionAdded",
      "type": "event"
    },
    {
      "anonymous": false,
      "inputs": [
        {
          "indexed": true,
          "internalType": "address",
          "name": "from",
          "type": "address"
        },
        {
          "indexed": true,
          "internalType": "address",
          "name": "to",
          "type": "address"
        },
        {
          "indexed": true,
          "internalType": "uint256",
          "name": "tokenId",
          "type": "uint256"
        }
      ],
      "name": "Transfer",
      "type": "event"
    },
    {
      "anonymous": false,
      "inputs": [
        {
          "indexed": false,
          "internalType": "address",
          "name": "account",
          "type": "address"
        }
      ],
      "name": "Unpaused",
      "type": "event"
    },
    {
      "inputs": [],
      "name": "DEFAULT_ADMIN_ROLE",
      "outputs": [
        {
          "internalType": "bytes32",
          "name": "",
          "type": "bytes32"
        }
      ],
      "stateMutability": "view",
      "type": "function"
    },
    {
      "inputs": [],
      "name": "MINTER_ROLE",
      "outputs": [
        {
          "internalType": "bytes32",
          "name": "",
          "type": "bytes32"
        }
      ],
      "stateMutability": "view",
      "type": "function"
    },
    {
      "inputs": [],
      "name": "PAUSER_ROLE",
      "outputs": [
        {
          "internalType": "bytes32",
          "name": "",
          "type": "bytes32"
        }
      ],
      "stateMutability": "view",
      "type": "function"
    },
    {
      "inputs": [
        {
          "internalType": "address",
          "name": "to",
          "type": "address"
        },
        {
          "internalType": "uint256",
          "name": "tokenId",
          "type": "uint256"
        }
      ],
      "name": "approve",
      "outputs": [],
      "stateMutability": "nonpayable",
      "type": "function"
    },
    {
      "inputs": [
        {
          "internalType": "address",
          "name": "owner",
          "type": "address"
        }
      ],
      "name": "balanceOf",
      "outputs": [
        {
          "internalType": "uint256",
          "name": "",
          "type": "uint256"
        }
      ],
      "stateMutability": "view",
      "type": "function"
    },
    {
      "inputs": [
        {
          "internalType": "uint256",
          "name": "tokenId",
          "type": "uint256"
        }
      ],
      "name": "burn",
      "outputs": [],
      "stateMutability": "nonpayable",
      "type": "function"
    },
    {
      "inputs": [
        {
          "internalType": "uint256",
          "name": "tokenId",
          "type": "uint256"
        }
      ],
      "name": "getApproved",
      "outputs": [
        {
          "internalType": "address",
          "name": "",
          "type": "address"
        }
      ],
      "stateMutability": "view",
      "type": "function"
    },
    {
      "inputs": [],
      "name": "getOwner",
      "outputs": [
        {
          "internalType": "address",
          "name": "",
          "type": "address"
        }
      ],
      "stateMutability": "view",
      "type": "function"
    },
    {
      "inputs": [
        {
          "internalType": "bytes32",
          "name": "role",
          "type": "bytes32"
        }
      ],
      "name": "getRoleAdmin",
      "outputs": [
        {
          "internalType": "bytes32",
          "name": "",
          "type": "bytes32"
        }
      ],
      "stateMutability": "view",
      "type": "function"
    },
    {
      "inputs": [
        {
          "internalType": "bytes32",
          "name": "role",
          "type": "bytes32"
        },
        {
          "internalType": "uint256",
          "name": "index",
          "type": "uint256"
        }
      ],
      "name": "getRoleMember",
      "outputs": [
        {
          "internalType": "address",
          "name": "",
          "type": "address"
        }
      ],
      "stateMutability": "view",
      "type": "function"
    },
    {
      "inputs": [
        {
          "internalType": "bytes32",
          "name": "role",
          "type": "bytes32"
        }
      ],
      "name": "getRoleMemberCount",
      "outputs": [
        {
          "internalType": "uint256",
          "name": "",
          "type": "uint256"
        }
      ],
      "stateMutability": "view",
      "type": "function"
    },
    {
      "inputs": [
        {
          "internalType": "bytes32",
          "name": "role",
          "type": "bytes32"
        },
        {
          "internalType": "address",
          "name": "account",
          "type": "address"
        }
      ],
      "name": "grantRole",
      "outputs": [],
      "stateMutability": "nonpayable",
      "type": "function"
    },
    {
      "inputs": [
        {
          "internalType": "bytes32",
          "name": "role",
          "type": "bytes32"
        },
        {
          "internalType": "address",
          "name": "account",
          "type": "address"
        }
      ],
      "name": "hasRole",
      "outputs": [
        {
          "internalType": "bool",
          "name": "",
          "type": "bool"
        }
      ],
      "stateMutability": "view",
      "type": "function"
    },
    {
      "inputs": [
        {
          "internalType": "address",
          "name": "owner",
          "type": "address"
        },
        {
          "internalType": "address",
          "name": "operator",
          "type": "address"
        }
      ],
      "name": "isApprovedForAll",
      "outputs": [
        {
          "internalType": "bool",
          "name": "",
          "type": "bool"
        }
      ],
      "stateMutability": "view",
      "type": "function"
    },
    {
      "inputs": [
        {
          "internalType": "address",
          "name": "to",
          "type": "address"
        }
      ],
      "name": "mint",
      "outputs": [],
      "stateMutability": "nonpayable",
      "type": "function"
    },
    {
      "inputs": [],
      "name": "name",
      "outputs": [
        {
          "internalType": "string",
          "name": "",
          "type": "string"
        }
      ],
      "stateMutability": "view",
      "type": "function"
    },
    {
      "inputs": [
        {
          "internalType": "uint256",
          "name": "tokenId",
          "type": "uint256"
        }
      ],
      "name": "ownerOf",
      "outputs": [
        {
          "internalType": "address",
          "name": "",
          "type": "address"
        }
      ],
      "stateMutability": "view",
      "type": "function"
    },
    {
      "inputs": [],
      "name": "pause",
      "outputs": [],
      "stateMutability": "nonpayable",
      "type": "function"
    },
    {
      "inputs": [],
      "name": "paused",
      "outputs": [
        {
          "internalType": "bool",
          "name": "",
          "type": "bool"
        }
      ],
      "stateMutability": "view",
      "type": "function"
    },
    {
      "inputs": [
        {
          "internalType": "bytes32",
          "name": "role",
          "type": "bytes32"
        },
        {
          "internalType": "address",
          "name": "account",
          "type": "address"
        }
      ],
      "name": "renounceRole",
      "outputs": [],
      "stateMutability": "nonpayable",
      "type": "function"
    },
    {
      "inputs": [
        {
          "internalType": "bytes32",
          "name": "role",
          "type": "bytes32"
        },
        {
          "internalType": "address",
          "name": "account",
          "type": "address"
        }
      ],
      "name": "revokeRole",
      "outputs": [],
      "stateMutability": "nonpayable",
      "type": "function"
    },
    {
      "inputs": [
        {
          "internalType": "address",
          "name": "from",
          "type": "address"
        },
        {
          "internalType": "address",
          "name": "to",
          "type": "address"
        },
        {
          "internalType": "uint256",
          "name": "tokenId",
          "type": "uint256"
        }
      ],
      "name": "safeTransferFrom",
      "outputs": [],
      "stateMutability": "nonpayable",
      "type": "function"
    },
    {
      "inputs": [
        {
          "internalType": "address",
          "name": "from",
          "type": "address"
        },
        {
          "internalType": "address",
          "name": "to",
          "type": "address"
        },
        {
          "internalType": "uint256",
          "name": "tokenId",
          "type": "uint256"
        },
        {
          "internalType": "bytes",
          "name": "_data",
          "type": "bytes"
        }
      ],
      "name": "safeTransferFrom",
      "outputs": [],
      "stateMutability": "nonpayable",
      "type": "function"
    },
    {
      "inputs": [
        {
          "internalType": "address",
          "name": "operator",
          "type": "address"
        },
        {
          "internalType": "bool",
          "name": "approved",
          "type": "bool"
        }
      ],
      "name": "setApprovalForAll",
      "outputs": [],
      "stateMutability": "nonpayable",
      "type": "function"
    },
    {
      "inputs": [
        {
          "internalType": "bytes4",
          "name": "interfaceId",
          "type": "bytes4"
        }
      ],
      "name": "supportsInterface",
      "outputs": [
        {
          "internalType": "bool",
          "name": "",
          "type": "bool"
        }
      ],
      "stateMutability": "view",
      "type": "function"
    },
    {
      "inputs": [],
      "name": "symbol",
      "outputs": [
        {
          "internalType": "string",
          "name": "",
          "type": "string"
        }
      ],
      "stateMutability": "view",
      "type": "function"
    },
    {
      "inputs": [
        {
          "internalType": "uint256",
          "name": "index",
          "type": "uint256"
        }
      ],
      "name": "tokenByIndex",
      "outputs": [
        {
          "internalType": "uint256",
          "name": "",
          "type": "uint256"
        }
      ],
      "stateMutability": "view",
      "type": "function"
    },
    {
      "inputs": [
        {
          "internalType": "address",
          "name": "owner",
          "type": "address"
        },
        {
          "internalType": "uint256",
          "name": "index",
          "type": "uint256"
        }
      ],
      "name": "tokenOfOwnerByIndex",
      "outputs": [
        {
          "internalType": "uint256",
          "name": "",
          "type": "uint256"
        }
      ],
      "stateMutability": "view",
      "type": "function"
    },
    {
      "inputs": [
        {
          "internalType": "uint256",
          "name": "tokenId",
          "type": "uint256"
        }
      ],
      "name": "tokenURI",
      "outputs": [
        {
          "internalType": "string",
          "name": "",
          "type": "string"
        }
      ],
      "stateMutability": "view",
      "type": "function"
    },
    {
      "inputs": [],
      "name": "totalSupply",
      "outputs": [
        {
          "internalType": "uint256",
          "name": "",
          "type": "uint256"
        }
      ],
      "stateMutability": "view",
      "type": "function"
    },
    {
      "inputs": [
        {
          "internalType": "address",
          "name": "from",
          "type": "address"
        },
        {
          "internalType": "address",
          "name": "to",
          "type": "address"
        },
        {
          "internalType": "uint256",
          "name": "tokenId",
          "type": "uint256"
        }
      ],
      "name": "transferFrom",
      "outputs": [],
      "stateMutability": "nonpayable",
      "type": "function"
    },
    {
      "inputs": [],
      "name": "unpause",
      "outputs": [],
      "stateMutability": "nonpayable",
      "type": "function"
    },
    {
      "inputs": [
        {
          "components": [
            {
              "components": [
                {
                  "internalType": "uint256",
                  "name": "X",
                  "type": "uint256"
                },
                {
                  "internalType": "uint256",
                  "name": "Y",
                  "type": "uint256"
                }
              ],
              "internalType": "struct Pairing.G1Point",
              "name": "a",
              "type": "tuple"
            },
            {
              "components": [
                {
                  "internalType": "uint256[2]",
                  "name": "X",
                  "type": "uint256[2]"
                },
                {
                  "internalType": "uint256[2]",
                  "name": "Y",
                  "type": "uint256[2]"
                }
              ],
              "internalType": "struct Pairing.G2Point",
              "name": "b",
              "type": "tuple"
            },
            {
              "components": [
                {
                  "internalType": "uint256",
                  "name": "X",
                  "type": "uint256"
                },
                {
                  "internalType": "uint256",
                  "name": "Y",
                  "type": "uint256"
                }
              ],
              "internalType": "struct Pairing.G1Point",
              "name": "c",
              "type": "tuple"
            }
          ],
          "internalType": "struct SquareVerifier.Proof",
          "name": "proof",
          "type": "tuple"
        },
        {
          "internalType": "uint256[2]",
          "name": "input",
          "type": "uint256[2]"
        }
      ],
      "name": "verifyTx",
      "outputs": [
        {
          "internalType": "bool",
          "name": "r",
          "type": "bool"
        }
      ],
      "stateMutability": "view",
      "type": "function"
    },
    {
      "inputs": [],
      "name": "getSolutionsLength",
      "outputs": [
        {
          "internalType": "uint256",
          "name": "",
          "type": "uint256"
        }
      ],
      "stateMutability": "view",
      "type": "function"
    },
    {
      "inputs": [
        {
          "internalType": "address",
          "name": "to",
          "type": "address"
        },
        {
          "components": [
            {
              "components": [
                {
                  "internalType": "uint256",
                  "name": "X",
                  "type": "uint256"
                },
                {
                  "internalType": "uint256",
                  "name": "Y",
                  "type": "uint256"
                }
              ],
              "internalType": "struct Pairing.G1Point",
              "name": "a",
              "type": "tuple"
            },
            {
              "components": [
                {
                  "internalType": "uint256[2]",
                  "name": "X",
                  "type": "uint256[2]"
                },
                {
                  "internalType": "uint256[2]",
                  "name": "Y",
                  "type": "uint256[2]"
                }
              ],
              "internalType": "struct Pairing.G2Point",
              "name": "b",
              "type": "tuple"
            },
            {
              "components": [
                {
                  "internalType": "uint256",
                  "name": "X",
                  "type": "uint256"
                },
                {
                  "internalType": "uint256",
                  "name": "Y",
                  "type": "uint256"
                }
              ],
              "internalType": "struct Pairing.G1Point",
              "name": "c",
              "type": "tuple"
            }
          ],
          "internalType": "struct SquareVerifier.Proof",
          "name": "proof",
          "type": "tuple"
        },
        {
          "internalType": "uint256[2]",
          "name": "input",
          "type": "uint256[2]"
        }
      ],
      "name": "mintToken",
      "outputs": [],
      "stateMutability": "nonpayable",
      "type": "function"
    }
  ],
  "bytecode": "0x60806040523480156200001157600080fd5b506040518060400160405280601181526020017f5265616c2045737461746520546f6b656e0000000000000000000000000000008152506040518060400160405280600381526020017f524554000000000000000000000000000000000000000000000000000000000081525081816040518060600160405280603f8152602001620063e0603f913982828160029080519060200190620000b49291906200048c565b508060039080519060200190620000cd9291906200048c565b5050506000600c60006101000a81548160ff02191690831515021790555080600e9080519060200190620001039291906200048c565b50620001286000801b6200011c620001f660201b60201c565b620001fe60201b60201c565b620001697f9f2df0fed2c77648de5860a4cc508cd0818c85b8b8a1ab4ceeef8d981c8956a66200015d620001f660201b60201c565b620001fe60201b60201c565b620001aa7f65d7a28e3265b37a6474929f336521b332c1681b933f6cb9f3376673440d862a6200019e620001f660201b60201c565b620001fe60201b60201c565b50505033600f60006101000a81548173ffffffffffffffffffffffffffffffffffffffff021916908373ffffffffffffffffffffffffffffffffffffffff1602179055505050620005a1565b600033905090565b6200021582826200024660201b620014b51760201c565b6200024181600160008581526020019081526020016000206200025c60201b620014c31790919060201c565b505050565b6200025882826200029460201b60201c565b5050565b60006200028c836000018373ffffffffffffffffffffffffffffffffffffffff1660001b6200038560201b60201c565b905092915050565b620002a68282620003ff60201b60201c565b6200038157600160008084815260200190815260200160002060000160008373ffffffffffffffffffffffffffffffffffffffff1673ffffffffffffffffffffffffffffffffffffffff16815260200190815260200160002060006101000a81548160ff02191690831515021790555062000326620001f660201b60201c565b73ffffffffffffffffffffffffffffffffffffffff168173ffffffffffffffffffffffffffffffffffffffff16837f2f8788117e7eff1d82e926ec794901d17c78024a50270940304540a733656f0d60405160405180910390a45b5050565b60006200039983836200046960201b60201c565b620003f4578260000182908060018154018082558091505060019003906000526020600020016000909190919091505582600001805490508360010160008481526020019081526020016000208190555060019050620003f9565b600090505b92915050565b600080600084815260200190815260200160002060000160008373ffffffffffffffffffffffffffffffffffffffff1673ffffffffffffffffffffffffffffffffffffffff16815260200190815260200160002060009054906101000a900460ff16905092915050565b600080836001016000848152602001908152602001600020541415905092915050565b8280546200049a906200056b565b90600052602060002090601f016020900481019282620004be57600085556200050a565b82601f10620004d957805160ff19168380011785556200050a565b828001600101855582156200050a579182015b8281111562000509578251825591602001919060010190620004ec565b5b5090506200051991906200051d565b5090565b5b80821115620005385760008160009055506001016200051e565b5090565b7f4e487b7100000000000000000000000000000000000000000000000000000000600052602260045260246000fd5b600060028204905060018216806200058457607f821691505b602082108114156200059b576200059a6200053c565b5b50919050565b615e2f80620005b16000396000f3fe608060405234801561001057600080fd5b50600436106102115760003560e01c80636352211e11610125578063a217fddf116100ad578063ca15c8731161007c578063ca15c87314610624578063d539139314610654578063d547741f14610672578063e63ab1e91461068e578063e985e9c5146106ac57610211565b8063a217fddf1461059e578063a22cb465146105bc578063b88d4fde146105d8578063c87b56dd146105f457610211565b80638456cb59116100f45780638456cb59146104f8578063893d20e8146105025780639010d07c1461052057806391d148541461055057806395d89b411461058057610211565b80636352211e1461045e5780636a6278421461048e57806370a08231146104aa57806374273100146104da57610211565b80632f745c59116101a857806342966c681161017757806342966c68146103a857806343cd76fc146103c45780634c5339dd146103f45780634f6ccce7146104105780635c975abb1461044057610211565b80632f745c591461033657806336568abe146103665780633f4ba83a1461038257806342842e0e1461038c57610211565b806318160ddd116101e457806318160ddd146102b057806323b872dd146102ce578063248a9ca3146102ea5780632f2ff15d1461031a57610211565b806301ffc9a71461021657806306fdde0314610246578063081812fc14610264578063095ea7b314610294575b600080fd5b610230600480360381019061022b9190614108565b6106dc565b60405161023d9190614150565b60405180910390f35b61024e6106ee565b60405161025b9190614204565b60405180910390f35b61027e6004803603810190610279919061425c565b610780565b60405161028b91906142ca565b60405180910390f35b6102ae60048036038101906102a99190614311565b610805565b005b6102b861091d565b6040516102c59190614360565b60405180910390f35b6102e860048036038101906102e3919061437b565b61092a565b005b61030460048036038101906102ff9190614404565b61098a565b6040516103119190614440565b60405180910390f35b610334600480360381019061032f919061445b565b6109a9565b005b610350600480360381019061034b9190614311565b6109dd565b60405161035d9190614360565b60405180910390f35b610380600480360381019061037b919061445b565b610a82565b005b61038a610ab6565b005b6103a660048036038101906103a1919061437b565b610b30565b005b6103c260048036038101906103bd919061425c565b610b50565b005b6103de60048036038101906103d991906146db565b610bac565b6040516103eb9190614150565b60405180910390f35b61040e6004803603810190610409919061471d565b610c7a565b005b61042a6004803603810190610425919061425c565b610c92565b6040516104379190614360565b60405180910390f35b610448610d03565b6040516104559190614150565b60405180910390f35b6104786004803603810190610473919061425c565b610d1a565b60405161048591906142ca565b60405180910390f35b6104a860048036038101906104a39190614772565b610dcc565b005b6104c460048036038101906104bf9190614772565b610e5c565b6040516104d19190614360565b60405180910390f35b6104e2610f14565b6040516104ef9190614360565b60405180910390f35b610500610f21565b005b61050a610f9b565b60405161051791906142ca565b60405180910390f35b61053a6004803603810190610535919061479f565b610fc5565b60405161054791906142ca565b60405180910390f35b61056a6004803603810190610565919061445b565b610ff4565b6040516105779190614150565b60405180910390f35b61058861105e565b6040516105959190614204565b60405180910390f35b6105a66110f0565b6040516105b39190614440565b60405180910390f35b6105d660048036038101906105d1919061480b565b6110f7565b005b6105f260048036038101906105ed9190614900565b611278565b005b61060e6004803603810190610609919061425c565b6112da565b60405161061b9190614204565b60405180910390f35b61063e60048036038101906106399190614404565b611381565b60405161064b9190614360565b60405180910390f35b61065c6113a5565b6040516106699190614440565b60405180910390f35b61068c6004803603810190610687919061445b565b6113c9565b005b6106966113fd565b6040516106a39190614440565b60405180910390f35b6106c660048036038101906106c19190614983565b611421565b6040516106d39190614150565b60405180910390f35b60006106e7826114f3565b9050919050565b6060600280546106fd906149f2565b80601f0160208091040260200160405190810160405280929190818152602001828054610729906149f2565b80156107765780601f1061074b57610100808354040283529160200191610776565b820191906000526020600020905b81548152906001019060200180831161075957829003601f168201915b5050505050905090565b600061078b8261156d565b6107ca576040517f08c379a00000000000000000000000000000000000000000000000000000000081526004016107c190614a96565b60405180910390fd5b6006600083815260200190815260200160002060009054906101000a900473ffffffffffffffffffffffffffffffffffffffff169050919050565b600061081082610d1a565b90508073ffffffffffffffffffffffffffffffffffffffff168373ffffffffffffffffffffffffffffffffffffffff161415610881576040517f08c379a000000000000000000000000000000000000000000000000000000000815260040161087890614b28565b60405180910390fd5b8073ffffffffffffffffffffffffffffffffffffffff166108a06115d9565b73ffffffffffffffffffffffffffffffffffffffff1614806108cf57506108ce816108c96115d9565b611421565b5b61090e576040517f08c379a000000000000000000000000000000000000000000000000000000000815260040161090590614bba565b60405180910390fd5b61091883836115e1565b505050565b6000600a80549050905090565b61093b6109356115d9565b8261169a565b61097a576040517f08c379a000000000000000000000000000000000000000000000000000000000815260040161097190614c4c565b60405180910390fd5b610985838383611778565b505050565b6000806000838152602001908152602001600020600101549050919050565b6109b382826119d4565b6109d881600160008581526020019081526020016000206114c390919063ffffffff16565b505050565b60006109e883610e5c565b8210610a29576040517f08c379a0000000000000000000000000000000000000000000000000000000008152600401610a2090614cde565b60405180910390fd5b600860008473ffffffffffffffffffffffffffffffffffffffff1673ffffffffffffffffffffffffffffffffffffffff168152602001908152602001600020600083815260200190815260200160002054905092915050565b610a8c82826119fd565b610ab18160016000858152602001908152602001600020611a8090919063ffffffff16565b505050565b610ae77f65d7a28e3265b37a6474929f336521b332c1681b933f6cb9f3376673440d862a610ae26115d9565b610ff4565b610b26576040517f08c379a0000000000000000000000000000000000000000000000000000000008152600401610b1d90614d70565b60405180910390fd5b610b2e611ab0565b565b610b4b83838360405180602001604052806000815250611278565b505050565b610b61610b5b6115d9565b8261169a565b610ba0576040517f08c379a0000000000000000000000000000000000000000000000000000000008152600401610b9790614e02565b60405180910390fd5b610ba981611b52565b50565b600080600267ffffffffffffffff811115610bca57610bc96144a0565b5b604051908082528060200260200182016040528015610bf85781602001602082028036833780820191505090505b50905060005b6002811015610c5157838160028110610c1a57610c19614e22565b5b6020020151828281518110610c3257610c31614e22565b5b6020026020010181815250508080610c4990614e80565b915050610bfe565b506000610c5e8286611c63565b1415610c6e576001915050610c74565b60009150505b92915050565b610c848282611dfa565b610c8d83610dcc565b505050565b6000610c9c61091d565b8210610cdd576040517f08c379a0000000000000000000000000000000000000000000000000000000008152600401610cd490614f3b565b60405180910390fd5b600a8281548110610cf157610cf0614e22565b5b90600052602060002001549050919050565b6000600c60009054906101000a900460ff16905090565b6000806004600084815260200190815260200160002060009054906101000a900473ffffffffffffffffffffffffffffffffffffffff169050600073ffffffffffffffffffffffffffffffffffffffff168173ffffffffffffffffffffffffffffffffffffffff161415610dc3576040517f08c379a0000000000000000000000000000000000000000000000000000000008152600401610dba90614fcd565b60405180910390fd5b80915050919050565b610dfd7f9f2df0fed2c77648de5860a4cc508cd0818c85b8b8a1ab4ceeef8d981c8956a6610df86115d9565b610ff4565b610e3c576040517f08c379a0000000000000000000000000000000000000000000000000000000008152600401610e339061505f565b60405180910390fd5b610e4f81610e4a600d611fa6565b611fb4565b610e59600d612182565b50565b60008073ffffffffffffffffffffffffffffffffffffffff168273ffffffffffffffffffffffffffffffffffffffff161415610ecd576040517f08c379a0000000000000000000000000000000000000000000000000000000008152600401610ec4906150f1565b60405180910390fd5b600560008373ffffffffffffffffffffffffffffffffffffffff1673ffffffffffffffffffffffffffffffffffffffff168152602001908152602001600020549050919050565b6000601080549050905090565b610f527f65d7a28e3265b37a6474929f336521b332c1681b933f6cb9f3376673440d862a610f4d6115d9565b610ff4565b610f91576040517f08c379a0000000000000000000000000000000000000000000000000000000008152600401610f8890615183565b60405180910390fd5b610f99612198565b565b6000600f60009054906101000a900473ffffffffffffffffffffffffffffffffffffffff16905090565b6000610fec826001600086815260200190815260200160002061223b90919063ffffffff16565b905092915050565b600080600084815260200190815260200160002060000160008373ffffffffffffffffffffffffffffffffffffffff1673ffffffffffffffffffffffffffffffffffffffff16815260200190815260200160002060009054906101000a900460ff16905092915050565b60606003805461106d906149f2565b80601f0160208091040260200160405190810160405280929190818152602001828054611099906149f2565b80156110e65780601f106110bb576101008083540402835291602001916110e6565b820191906000526020600020905b8154815290600101906020018083116110c957829003601f168201915b5050505050905090565b6000801b81565b6110ff6115d9565b73ffffffffffffffffffffffffffffffffffffffff168273ffffffffffffffffffffffffffffffffffffffff16141561116d576040517f08c379a0000000000000000000000000000000000000000000000000000000008152600401611164906151ef565b60405180910390fd5b806007600061117a6115d9565b73ffffffffffffffffffffffffffffffffffffffff1673ffffffffffffffffffffffffffffffffffffffff16815260200190815260200160002060008473ffffffffffffffffffffffffffffffffffffffff1673ffffffffffffffffffffffffffffffffffffffff16815260200190815260200160002060006101000a81548160ff0219169083151502179055508173ffffffffffffffffffffffffffffffffffffffff166112276115d9565b73ffffffffffffffffffffffffffffffffffffffff167f17307eab39ab6107e8899845ad3d59bd9653f200f220920489ca2b5937696c318360405161126c9190614150565b60405180910390a35050565b6112896112836115d9565b8361169a565b6112c8576040517f08c379a00000000000000000000000000000000000000000000000000000000081526004016112bf90614c4c565b60405180910390fd5b6112d484848484612255565b50505050565b60606112e58261156d565b611324576040517f08c379a000000000000000000000000000000000000000000000000000000000815260040161131b90615281565b60405180910390fd5b600061132e6122b1565b9050600081511161134e5760405180602001604052806000815250611379565b8061135884612343565b6040516020016113699291906152dd565b6040516020818303038152906040525b915050919050565b600061139e600160008481526020019081526020016000206124a4565b9050919050565b7f9f2df0fed2c77648de5860a4cc508cd0818c85b8b8a1ab4ceeef8d981c8956a681565b6113d382826124b9565b6113f88160016000858152602001908152602001600020611a8090919063ffffffff16565b505050565b7f65d7a28e3265b37a6474929f336521b332c1681b933f6cb9f3376673440d862a81565b6000600760008473ffffffffffffffffffffffffffffffffffffffff1673ffffffffffffffffffffffffffffffffffffffff16815260200190815260200160002060008373ffffffffffffffffffffffffffffffffffffffff1673ffffffffffffffffffffffffffffffffffffffff16815260200190815260200160002060009054906101000a900460ff16905092915050565b6114bf82826124e2565b5050565b60006114eb836000018373ffffffffffffffffffffffffffffffffffffffff1660001b6125c2565b905092915050565b60007f780e9d63000000000000000000000000000000000000000000000000000000007bffffffffffffffffffffffffffffffffffffffffffffffffffffffff1916827bffffffffffffffffffffffffffffffffffffffffffffffffffffffff19161480611566575061156582612632565b5b9050919050565b60008073ffffffffffffffffffffffffffffffffffffffff166004600084815260200190815260200160002060009054906101000a900473ffffffffffffffffffffffffffffffffffffffff1673ffffffffffffffffffffffffffffffffffffffff1614159050919050565b600033905090565b816006600083815260200190815260200160002060006101000a81548173ffffffffffffffffffffffffffffffffffffffff021916908373ffffffffffffffffffffffffffffffffffffffff160217905550808273ffffffffffffffffffffffffffffffffffffffff1661165483610d1a565b73ffffffffffffffffffffffffffffffffffffffff167f8c5be1e5ebec7d5bd14f71427d1e84f3dd0314c0f7b2291e5b200ac8c7c3b92560405160405180910390a45050565b60006116a58261156d565b6116e4576040517f08c379a00000000000000000000000000000000000000000000000000000000081526004016116db90615373565b60405180910390fd5b60006116ef83610d1a565b90508073ffffffffffffffffffffffffffffffffffffffff168473ffffffffffffffffffffffffffffffffffffffff16148061175e57508373ffffffffffffffffffffffffffffffffffffffff1661174684610780565b73ffffffffffffffffffffffffffffffffffffffff16145b8061176f575061176e8185611421565b5b91505092915050565b8273ffffffffffffffffffffffffffffffffffffffff1661179882610d1a565b73ffffffffffffffffffffffffffffffffffffffff16146117ee576040517f08c379a00000000000000000000000000000000000000000000000000000000081526004016117e590615405565b60405180910390fd5b600073ffffffffffffffffffffffffffffffffffffffff168273ffffffffffffffffffffffffffffffffffffffff16141561185e576040517f08c379a000000000000000000000000000000000000000000000000000000000815260040161185590615497565b60405180910390fd5b611869838383612714565b6118746000826115e1565b6001600560008573ffffffffffffffffffffffffffffffffffffffff1673ffffffffffffffffffffffffffffffffffffffff16815260200190815260200160002060008282546118c491906154b7565b925050819055506001600560008473ffffffffffffffffffffffffffffffffffffffff1673ffffffffffffffffffffffffffffffffffffffff168152602001908152602001600020600082825461191b91906154eb565b92505081905550816004600083815260200190815260200160002060006101000a81548173ffffffffffffffffffffffffffffffffffffffff021916908373ffffffffffffffffffffffffffffffffffffffff160217905550808273ffffffffffffffffffffffffffffffffffffffff168473ffffffffffffffffffffffffffffffffffffffff167fddf252ad1be2c89b69c2b068fc378daa952ba7f163c4a11628f55a4df523b3ef60405160405180910390a4505050565b6119dd8261098a565b6119ee816119e96115d9565b612724565b6119f883836124e2565b505050565b611a056115d9565b73ffffffffffffffffffffffffffffffffffffffff168173ffffffffffffffffffffffffffffffffffffffff1614611a72576040517f08c379a0000000000000000000000000000000000000000000000000000000008152600401611a69906155b3565b60405180910390fd5b611a7c82826127c1565b5050565b6000611aa8836000018373ffffffffffffffffffffffffffffffffffffffff1660001b6128a2565b905092915050565b611ab8610d03565b611af7576040517f08c379a0000000000000000000000000000000000000000000000000000000008152600401611aee9061561f565b60405180910390fd5b6000600c60006101000a81548160ff0219169083151502179055507f5db9ee0a495bf2e6ff9c91a7834c1ba4fdd244a5e8aa4e537bd38aeae4b073aa611b3b6115d9565b604051611b4891906142ca565b60405180910390a1565b6000611b5d82610d1a565b9050611b6b81600084612714565b611b766000836115e1565b6001600560008373ffffffffffffffffffffffffffffffffffffffff1673ffffffffffffffffffffffffffffffffffffffff1681526020019081526020016000206000828254611bc691906154b7565b925050819055506004600083815260200190815260200160002060006101000a81549073ffffffffffffffffffffffffffffffffffffffff021916905581600073ffffffffffffffffffffffffffffffffffffffff168273ffffffffffffffffffffffffffffffffffffffff167fddf252ad1be2c89b69c2b068fc378daa952ba7f163c4a11628f55a4df523b3ef60405160405180910390a45050565b6000807f30644e72e131a029b85045b68181585d2833e84879b9709143e1f593f000000190506000611c936129b6565b905080608001515160018651611ca991906154eb565b14611cb357600080fd5b60006040518060400160405280600081526020016000815250905060005b8651811015611d6c5783878281518110611cee57611ced614e22565b5b602002602001015110611d0057600080fd5b611d5782611d528560800151600185611d1991906154eb565b81518110611d2a57611d29614e22565b5b60200260200101518a8581518110611d4557611d44614e22565b5b6020026020010151612e32565b612ed9565b91508080611d6490614e80565b915050611cd1565b50611d96818360800151600081518110611d8957611d88614e22565b5b6020026020010151612ed9565b9050611ddc85600001518660200151611dae84612fa6565b8560400151611dc08a60400151612fa6565b8760600151611dd28960000151612fa6565b896020015161304b565b611dec5760019350505050611df4565b600093505050505b92915050565b600081604051602001611e0d91906156ea565b6040516020818303038152906040528051906020012090506011600082815260200190815260200160002060009054906101000a900460ff1615611e86576040517f08c379a0000000000000000000000000000000000000000000000000000000008152600401611e7d90615777565b60405180910390fd5b6000611e928484610bac565b905080611ed4576040517f08c379a0000000000000000000000000000000000000000000000000000000008152600401611ecb906157e3565b60405180910390fd5b600060108054905090506000604051806040016040528085815260200183815250905060108190806001815401808255809150506001900390600052602060002090600202016000909190919091506000820151816000015560208201518160010155505060016011600086815260200190815260200160002060006101000a81548160ff0219169083151502179055507f66f093085d444d212c0b6d05b5d6fad2f91f7849d6956f170c296f69f70b78328483604051611f96929190615803565b60405180910390a1505050505050565b600081600001549050919050565b600073ffffffffffffffffffffffffffffffffffffffff168273ffffffffffffffffffffffffffffffffffffffff161415612024576040517f08c379a000000000000000000000000000000000000000000000000000000000815260040161201b90615878565b60405180910390fd5b61202d8161156d565b1561206d576040517f08c379a0000000000000000000000000000000000000000000000000000000008152600401612064906158e4565b60405180910390fd5b61207960008383612714565b6001600560008473ffffffffffffffffffffffffffffffffffffffff1673ffffffffffffffffffffffffffffffffffffffff16815260200190815260200160002060008282546120c991906154eb565b92505081905550816004600083815260200190815260200160002060006101000a81548173ffffffffffffffffffffffffffffffffffffffff021916908373ffffffffffffffffffffffffffffffffffffffff160217905550808273ffffffffffffffffffffffffffffffffffffffff16600073ffffffffffffffffffffffffffffffffffffffff167fddf252ad1be2c89b69c2b068fc378daa952ba7f163c4a11628f55a4df523b3ef60405160405180910390a45050565b6001816000016000828254019250508190555050565b6121a0610d03565b156121e0576040517f08c379a00000000000000000000000000000000000000000000000000000000081526004016121d790615950565b60405180910390fd5b6001600c60006101000a81548160ff0219169083151502179055507f62e78cea01bee320cd4e420270b5ea74000d11b0c9f74754ebdbfc544b05a2586122246115d9565b60405161223191906142ca565b60405180910390a1565b600061224a8360000183613218565b60001c905092915050565b612260848484611778565b61226c84848484613243565b6122ab576040517f08c379a00000000000000000000000000000000000000000000000000000000081526004016122a2906159e2565b60405180910390fd5b50505050565b6060600e80546122c0906149f2565b80601f01602080910402602001604051908101604052809291908181526020018280546122ec906149f2565b80156123395780601f1061230e57610100808354040283529160200191612339565b820191906000526020600020905b81548152906001019060200180831161231c57829003601f168201915b5050505050905090565b6060600082141561238b576040518060400160405280600181526020017f3000000000000000000000000000000000000000000000000000000000000000815250905061249f565b600082905060005b600082146123bd5780806123a690614e80565b915050600a826123b69190615a31565b9150612393565b60008167ffffffffffffffff8111156123d9576123d86144a0565b5b6040519080825280601f01601f19166020018201604052801561240b5781602001600182028036833780820191505090505b5090505b600085146124985760018261242491906154b7565b9150600a856124339190615a62565b603061243f91906154eb565b60f81b81838151811061245557612454614e22565b5b60200101907effffffffffffffffffffffffffffffffffffffffffffffffffffffffffffff1916908160001a905350600a856124919190615a31565b945061240f565b8093505050505b919050565b60006124b2826000016133da565b9050919050565b6124c28261098a565b6124d3816124ce6115d9565b612724565b6124dd83836127c1565b505050565b6124ec8282610ff4565b6125be57600160008084815260200190815260200160002060000160008373ffffffffffffffffffffffffffffffffffffffff1673ffffffffffffffffffffffffffffffffffffffff16815260200190815260200160002060006101000a81548160ff0219169083151502179055506125636115d9565b73ffffffffffffffffffffffffffffffffffffffff168173ffffffffffffffffffffffffffffffffffffffff16837f2f8788117e7eff1d82e926ec794901d17c78024a50270940304540a733656f0d60405160405180910390a45b5050565b60006125ce83836133eb565b61262757826000018290806001815401808255809150506001900390600052602060002001600090919091909150558260000180549050836001016000848152602001908152602001600020819055506001905061262c565b600090505b92915050565b60007f80ac58cd000000000000000000000000000000000000000000000000000000007bffffffffffffffffffffffffffffffffffffffffffffffffffffffff1916827bffffffffffffffffffffffffffffffffffffffffffffffffffffffff191614806126fd57507f5b5e139f000000000000000000000000000000000000000000000000000000007bffffffffffffffffffffffffffffffffffffffffffffffffffffffff1916827bffffffffffffffffffffffffffffffffffffffffffffffffffffffff1916145b8061270d575061270c8261340e565b5b9050919050565b61271f838383613488565b505050565b61272e8282610ff4565b6127bd576127538173ffffffffffffffffffffffffffffffffffffffff1660146134e0565b6127618360001c60206134e0565b604051602001612772929190615b2b565b6040516020818303038152906040526040517f08c379a00000000000000000000000000000000000000000000000000000000081526004016127b49190614204565b60405180910390fd5b5050565b6127cb8282610ff4565b1561289e57600080600084815260200190815260200160002060000160008373ffffffffffffffffffffffffffffffffffffffff1673ffffffffffffffffffffffffffffffffffffffff16815260200190815260200160002060006101000a81548160ff0219169083151502179055506128436115d9565b73ffffffffffffffffffffffffffffffffffffffff168173ffffffffffffffffffffffffffffffffffffffff16837ff6391f5c32d9c69d2a47ea670b442974b53935d1edc7fd64eb21e047a839171b60405160405180910390a45b5050565b600080836001016000848152602001908152602001600020549050600081146129aa5760006001826128d491906154b7565b90506000600186600001805490506128ec91906154b7565b905081811461295b57600086600001828154811061290d5761290c614e22565b5b906000526020600020015490508087600001848154811061293157612930614e22565b5b90600052602060002001819055508387600101600083815260200190815260200160002081905550505b8560000180548061296f5761296e615b65565b5b6001900381819060005260206000200160009055905585600101600086815260200190815260200160002060009055600193505050506129b0565b60009150505b92915050565b6129be613f8d565b60405180604001604052807f0d41bbbf41ce72e7c7af9b120fb749107c0a15da55b045407685677a035fbe3281526020017f05b22d712ae5021b27efcc801098dc2a3c8da4bc97d22dde786bbe8fc3fae3cf8152508160000181905250604051806040016040528060405180604001604052807f21e2933d843df138bf2b592f5b890da184fc5b14bf73ed67ab55407bc7e622d781526020017f0a1cb18bf18fdf1615468104d8fd0defd42aca33175c0abc48f792d5f2a505d8815250815260200160405180604001604052807f0b5e8f462d502d2623cd397affee74b59c7e5c20f1f4c0268130193816b405b881526020017f0e66c60bcf80c3206b69e851682b12e7a66c74ab5bddaca436176717b6eeb9418152508152508160200181905250604051806040016040528060405180604001604052807f0338b8ce4b4e6b3bc1747463c93dca525dbda80aabdc797a32666c9c73619d9b81526020017f205e55f655feb1916a6ad84d2bafaf9dd3fef63e633269215e60e1c82860848a815250815260200160405180604001604052807f1b66286430c233da45125dc4926e95c73346d7766f2cca201f699e247204105c81526020017f07275d1a9c6707a0bcaf1bed8ef0a591c894da4e7cbbceae98c00a82e9771df18152508152508160400181905250604051806040016040528060405180604001604052807f2e2a5006c3c1115b5c94fde5cfbd9cca779e4f8dd8090102bad21055be7cea4381526020017f1c7b4c0a066ffbaa1b4b9ee55c98cab4fdea49fd8ab9aed14f6ef8513bc0e021815250815260200160405180604001604052807f09a32856a7b1e7d37f12f58f9a24f08db78a9dc1cfc5ea9a47ab76d4ee05604c81526020017f029ec87a9ffd667e13d0b83fbb4388d07e6ac94c66fc6ea9eb02df768768c0468152508152508160600181905250600367ffffffffffffffff811115612c8557612c846144a0565b5b604051908082528060200260200182016040528015612cbe57816020015b612cab613fd4565b815260200190600190039081612ca35790505b50816080018190525060405180604001604052807f059e4c4589b98dcee05dec3b670ad4a53a4db9e8078fc16ac8b100a768cef1b981526020017f283461845d874b7bbfc078b8681bf7d15029a90a78c09b75fdd2443de02342038152508160800151600081518110612d3457612d33614e22565b5b602002602001018190525060405180604001604052807f10ac8bb4c28e6ca608289a04d90af833861dec73e78d16889ba3cdd3d2b0949581526020017f1f910441dd8b857b6208bbeb4601c6593df825cf8b28c8bdb2b25283e17ef8bf8152508160800151600181518110612dac57612dab614e22565b5b602002602001018190525060405180604001604052807f07ca667ebad1c580e95d4e14bd52554da0c1fc897f756111bfae4366b840f88781526020017f0e228658dfcef5c9e00e796d8d8c2e8416587736f532099ba0932207a49963788152508160800151600281518110612e2457612e23614e22565b5b602002602001018190525090565b612e3a613fd4565b612e42613fee565b836000015181600060038110612e5b57612e5a614e22565b5b602002018181525050836020015181600160038110612e7d57612e7c614e22565b5b6020020181815250508281600260038110612e9b57612e9a614e22565b5b602002018181525050600060608360808460076107d05a03fa90508060008114612ec457612ec6565bfe5b5080612ed157600080fd5b505092915050565b612ee1613fd4565b612ee9614010565b836000015181600060048110612f0257612f01614e22565b5b602002018181525050836020015181600160048110612f2457612f23614e22565b5b602002018181525050826000015181600260048110612f4657612f45614e22565b5b602002018181525050826020015181600360048110612f6857612f67614e22565b5b602002018181525050600060608360c08460066107d05a03fa90508060008114612f9157612f93565bfe5b5080612f9e57600080fd5b505092915050565b612fae613fd4565b60007f30644e72e131a029b85045b68181585d97816a916871ca8d3c208c16d87cfd47905060008360000151148015612feb575060008360200151145b1561300f576040518060400160405280600081526020016000815250915050613046565b6040518060400160405280846000015181526020018285602001516130349190615a62565b8361303f91906154b7565b8152509150505b919050565b600080600467ffffffffffffffff811115613069576130686144a0565b5b6040519080825280602002602001820160405280156130a257816020015b61308f613fd4565b8152602001906001900390816130875790505b5090506000600467ffffffffffffffff8111156130c2576130c16144a0565b5b6040519080825280602002602001820160405280156130fb57816020015b6130e8614032565b8152602001906001900390816130e05790505b5090508a8260008151811061311357613112614e22565b5b6020026020010181905250888260018151811061313357613132614e22565b5b6020026020010181905250868260028151811061315357613152614e22565b5b6020026020010181905250848260038151811061317357613172614e22565b5b6020026020010181905250898160008151811061319357613192614e22565b5b602002602001018190525087816001815181106131b3576131b2614e22565b5b602002602001018190525085816002815181106131d3576131d2614e22565b5b602002602001018190525083816003815181106131f3576131f2614e22565b5b6020026020010181905250613208828261371c565b9250505098975050505050505050565b60008260000182815481106132305761322f614e22565b5b9060005260206000200154905092915050565b60006132648473ffffffffffffffffffffffffffffffffffffffff16613a77565b156133cd578373ffffffffffffffffffffffffffffffffffffffff1663150b7a0261328d6115d9565b8786866040518563ffffffff1660e01b81526004016132af9493929190615be9565b602060405180830381600087803b1580156132c957600080fd5b505af19250505080156132fa57506040513d601f19601f820116820180604052508101906132f79190615c4a565b60015b61337d573d806000811461332a576040519150601f19603f3d011682016040523d82523d6000602084013e61332f565b606091505b50600081511415613375576040517f08c379a000000000000000000000000000000000000000000000000000000000815260040161336c906159e2565b60405180910390fd5b805181602001fd5b63150b7a0260e01b7bffffffffffffffffffffffffffffffffffffffffffffffffffffffff1916817bffffffffffffffffffffffffffffffffffffffffffffffffffffffff1916149150506133d2565b600190505b949350505050565b600081600001805490509050919050565b600080836001016000848152602001908152602001600020541415905092915050565b60007f5a05180f000000000000000000000000000000000000000000000000000000007bffffffffffffffffffffffffffffffffffffffffffffffffffffffff1916827bffffffffffffffffffffffffffffffffffffffffffffffffffffffff19161480613481575061348082613a8a565b5b9050919050565b613493838383613b04565b61349b610d03565b156134db576040517f08c379a00000000000000000000000000000000000000000000000000000000081526004016134d290615ce9565b60405180910390fd5b505050565b6060600060028360026134f39190615d09565b6134fd91906154eb565b67ffffffffffffffff811115613516576135156144a0565b5b6040519080825280601f01601f1916602001820160405280156135485781602001600182028036833780820191505090505b5090507f3000000000000000000000000000000000000000000000000000000000000000816000815181106135805761357f614e22565b5b60200101907effffffffffffffffffffffffffffffffffffffffffffffffffffffffffffff1916908160001a9053507f7800000000000000000000000000000000000000000000000000000000000000816001815181106135e4576135e3614e22565b5b60200101907effffffffffffffffffffffffffffffffffffffffffffffffffffffffffffff1916908160001a905350600060018460026136249190615d09565b61362e91906154eb565b90505b60018111156136ce577f3031323334353637383961626364656600000000000000000000000000000000600f8616601081106136705761366f614e22565b5b1a60f81b82828151811061368757613686614e22565b5b60200101907effffffffffffffffffffffffffffffffffffffffffffffffffffffffffffff1916908160001a905350600485901c9450806136c790615d63565b9050613631565b5060008414613712576040517f08c379a000000000000000000000000000000000000000000000000000000000815260040161370990615dd9565b60405180910390fd5b8091505092915050565b6000815183511461372c57600080fd5b60008351905060006006826137419190615d09565b905060008167ffffffffffffffff81111561375f5761375e6144a0565b5b60405190808252806020026020018201604052801561378d5781602001602082028036833780820191505090505b50905060005b83811015613a12578681815181106137ae576137ad614e22565b5b6020026020010151600001518260006006846137ca9190615d09565b6137d491906154eb565b815181106137e5576137e4614e22565b5b60200260200101818152505086818151811061380457613803614e22565b5b6020026020010151602001518260016006846138209190615d09565b61382a91906154eb565b8151811061383b5761383a614e22565b5b60200260200101818152505085818151811061385a57613859614e22565b5b60200260200101516000015160016002811061387957613878614e22565b5b602002015182600260068461388e9190615d09565b61389891906154eb565b815181106138a9576138a8614e22565b5b6020026020010181815250508581815181106138c8576138c7614e22565b5b6020026020010151600001516000600281106138e7576138e6614e22565b5b60200201518260036006846138fc9190615d09565b61390691906154eb565b8151811061391757613916614e22565b5b60200260200101818152505085818151811061393657613935614e22565b5b60200260200101516020015160016002811061395557613954614e22565b5b602002015182600460068461396a9190615d09565b61397491906154eb565b8151811061398557613984614e22565b5b6020026020010181815250508581815181106139a4576139a3614e22565b5b6020026020010151602001516000600281106139c3576139c2614e22565b5b60200201518260056006846139d89190615d09565b6139e291906154eb565b815181106139f3576139f2614e22565b5b6020026020010181815250508080613a0a90614e80565b915050613793565b50613a1b614058565b6000602082602086026020860160086107d05a03fa90508060008114613a4057613a42565bfe5b5080613a4d57600080fd5b600082600060018110613a6357613a62614e22565b5b602002015114159550505050505092915050565b600080823b905060008111915050919050565b60007f7965db0b000000000000000000000000000000000000000000000000000000007bffffffffffffffffffffffffffffffffffffffffffffffffffffffff1916827bffffffffffffffffffffffffffffffffffffffffffffffffffffffff19161480613afd5750613afc82613c18565b5b9050919050565b613b0f838383613c82565b600073ffffffffffffffffffffffffffffffffffffffff168373ffffffffffffffffffffffffffffffffffffffff161415613b5257613b4d81613c87565b613b91565b8173ffffffffffffffffffffffffffffffffffffffff168373ffffffffffffffffffffffffffffffffffffffff1614613b9057613b8f8382613cd0565b5b5b600073ffffffffffffffffffffffffffffffffffffffff168273ffffffffffffffffffffffffffffffffffffffff161415613bd457613bcf81613e3d565b613c13565b8273ffffffffffffffffffffffffffffffffffffffff168273ffffffffffffffffffffffffffffffffffffffff1614613c1257613c118282613f0e565b5b5b505050565b60007f01ffc9a7000000000000000000000000000000000000000000000000000000007bffffffffffffffffffffffffffffffffffffffffffffffffffffffff1916827bffffffffffffffffffffffffffffffffffffffffffffffffffffffff1916149050919050565b505050565b600a80549050600b600083815260200190815260200160002081905550600a81908060018154018082558091505060019003906000526020600020016000909190919091505550565b60006001613cdd84610e5c565b613ce791906154b7565b9050600060096000848152602001908152602001600020549050818114613dcc576000600860008673ffffffffffffffffffffffffffffffffffffffff1673ffffffffffffffffffffffffffffffffffffffff168152602001908152602001600020600084815260200190815260200160002054905080600860008773ffffffffffffffffffffffffffffffffffffffff1673ffffffffffffffffffffffffffffffffffffffff168152602001908152602001600020600084815260200190815260200160002081905550816009600083815260200190815260200160002081905550505b6009600084815260200190815260200160002060009055600860008573ffffffffffffffffffffffffffffffffffffffff1673ffffffffffffffffffffffffffffffffffffffff16815260200190815260200160002060008381526020019081526020016000206000905550505050565b60006001600a80549050613e5191906154b7565b90506000600b60008481526020019081526020016000205490506000600a8381548110613e8157613e80614e22565b5b9060005260206000200154905080600a8381548110613ea357613ea2614e22565b5b906000526020600020018190555081600b600083815260200190815260200160002081905550600b600085815260200190815260200160002060009055600a805480613ef257613ef1615b65565b5b6001900381819060005260206000200160009055905550505050565b6000613f1983610e5c565b905081600860008573ffffffffffffffffffffffffffffffffffffffff1673ffffffffffffffffffffffffffffffffffffffff168152602001908152602001600020600083815260200190815260200160002081905550806009600084815260200190815260200160002081905550505050565b6040518060a00160405280613fa0613fd4565b8152602001613fad614032565b8152602001613fba614032565b8152602001613fc7614032565b8152602001606081525090565b604051806040016040528060008152602001600081525090565b6040518060600160405280600390602082028036833780820191505090505090565b6040518060800160405280600490602082028036833780820191505090505090565b604051806040016040528061404561407a565b815260200161405261407a565b81525090565b6040518060200160405280600190602082028036833780820191505090505090565b6040518060400160405280600290602082028036833780820191505090505090565b6000604051905090565b600080fd5b600080fd5b60007fffffffff0000000000000000000000000000000000000000000000000000000082169050919050565b6140e5816140b0565b81146140f057600080fd5b50565b600081359050614102816140dc565b92915050565b60006020828403121561411e5761411d6140a6565b5b600061412c848285016140f3565b91505092915050565b60008115159050919050565b61414a81614135565b82525050565b60006020820190506141656000830184614141565b92915050565b600081519050919050565b600082825260208201905092915050565b60005b838110156141a557808201518184015260208101905061418a565b838111156141b4576000848401525b50505050565b6000601f19601f8301169050919050565b60006141d68261416b565b6141e08185614176565b93506141f0818560208601614187565b6141f9816141ba565b840191505092915050565b6000602082019050818103600083015261421e81846141cb565b905092915050565b6000819050919050565b61423981614226565b811461424457600080fd5b50565b60008135905061425681614230565b92915050565b600060208284031215614272576142716140a6565b5b600061428084828501614247565b91505092915050565b600073ffffffffffffffffffffffffffffffffffffffff82169050919050565b60006142b482614289565b9050919050565b6142c4816142a9565b82525050565b60006020820190506142df60008301846142bb565b92915050565b6142ee816142a9565b81146142f957600080fd5b50565b60008135905061430b816142e5565b92915050565b60008060408385031215614328576143276140a6565b5b6000614336858286016142fc565b925050602061434785828601614247565b9150509250929050565b61435a81614226565b82525050565b60006020820190506143756000830184614351565b92915050565b600080600060608486031215614394576143936140a6565b5b60006143a2868287016142fc565b93505060206143b3868287016142fc565b92505060406143c486828701614247565b9150509250925092565b6000819050919050565b6143e1816143ce565b81146143ec57600080fd5b50565b6000813590506143fe816143d8565b92915050565b60006020828403121561441a576144196140a6565b5b6000614428848285016143ef565b91505092915050565b61443a816143ce565b82525050565b60006020820190506144556000830184614431565b92915050565b60008060408385031215614472576144716140a6565b5b6000614480858286016143ef565b9250506020614491858286016142fc565b9150509250929050565b600080fd5b7f4e487b7100000000000000000000000000000000000000000000000000000000600052604160045260246000fd5b6144d8826141ba565b810181811067ffffffffffffffff821117156144f7576144f66144a0565b5b80604052505050565b600061450a61409c565b905061451682826144cf565b919050565b6000604082840312156145315761453061449b565b5b61453b6040614500565b9050600061454b84828501614247565b600083015250602061455f84828501614247565b60208301525092915050565b600080fd5b600067ffffffffffffffff82111561458b5761458a6144a0565b5b602082029050919050565b600080fd5b60006145ae6145a984614570565b614500565b905080602084028301858111156145c8576145c7614596565b5b835b818110156145f157806145dd8882614247565b8452602084019350506020810190506145ca565b5050509392505050565b600082601f8301126146105761460f61456b565b5b600261461d84828561459b565b91505092915050565b60006080828403121561463c5761463b61449b565b5b6146466040614500565b90506000614656848285016145fb565b600083015250604061466a848285016145fb565b60208301525092915050565b6000610100828403121561468d5761468c61449b565b5b6146976060614500565b905060006146a78482850161451b565b60008301525060406146bb84828501614626565b60208301525060c06146cf8482850161451b565b60408301525092915050565b60008061014083850312156146f3576146f26140a6565b5b600061470185828601614676565b925050610100614713858286016145fb565b9150509250929050565b60008060006101608486031215614737576147366140a6565b5b6000614745868287016142fc565b935050602061475686828701614676565b925050610120614768868287016145fb565b9150509250925092565b600060208284031215614788576147876140a6565b5b6000614796848285016142fc565b91505092915050565b600080604083850312156147b6576147b56140a6565b5b60006147c4858286016143ef565b92505060206147d585828601614247565b9150509250929050565b6147e881614135565b81146147f357600080fd5b50565b600081359050614805816147df565b92915050565b60008060408385031215614822576148216140a6565b5b6000614830858286016142fc565b9250506020614841858286016147f6565b9150509250929050565b600080fd5b600067ffffffffffffffff82111561486b5761486a6144a0565b5b614874826141ba565b9050602081019050919050565b82818337600083830152505050565b60006148a361489e84614850565b614500565b9050828152602081018484840111156148bf576148be61484b565b5b6148ca848285614881565b509392505050565b600082601f8301126148e7576148e661456b565b5b81356148f7848260208601614890565b91505092915050565b6000806000806080858703121561491a576149196140a6565b5b6000614928878288016142fc565b9450506020614939878288016142fc565b935050604061494a87828801614247565b925050606085013567ffffffffffffffff81111561496b5761496a6140ab565b5b614977878288016148d2565b91505092959194509250565b6000806040838503121561499a576149996140a6565b5b60006149a8858286016142fc565b92505060206149b9858286016142fc565b9150509250929050565b7f4e487b7100000000000000000000000000000000000000000000000000000000600052602260045260246000fd5b60006002820490506001821680614a0a57607f821691505b60208210811415614a1e57614a1d6149c3565b5b50919050565b7f4552433732313a20617070726f76656420717565727920666f72206e6f6e657860008201527f697374656e7420746f6b656e0000000000000000000000000000000000000000602082015250565b6000614a80602c83614176565b9150614a8b82614a24565b604082019050919050565b60006020820190508181036000830152614aaf81614a73565b9050919050565b7f4552433732313a20617070726f76616c20746f2063757272656e74206f776e6560008201527f7200000000000000000000000000000000000000000000000000000000000000602082015250565b6000614b12602183614176565b9150614b1d82614ab6565b604082019050919050565b60006020820190508181036000830152614b4181614b05565b9050919050565b7f4552433732313a20617070726f76652063616c6c6572206973206e6f74206f7760008201527f6e6572206e6f7220617070726f76656420666f7220616c6c0000000000000000602082015250565b6000614ba4603883614176565b9150614baf82614b48565b604082019050919050565b60006020820190508181036000830152614bd381614b97565b9050919050565b7f4552433732313a207472616e736665722063616c6c6572206973206e6f74206f60008201527f776e6572206e6f7220617070726f766564000000000000000000000000000000602082015250565b6000614c36603183614176565b9150614c4182614bda565b604082019050919050565b60006020820190508181036000830152614c6581614c29565b9050919050565b7f455243373231456e756d657261626c653a206f776e657220696e646578206f7560008201527f74206f6620626f756e6473000000000000000000000000000000000000000000602082015250565b6000614cc8602b83614176565b9150614cd382614c6c565b604082019050919050565b60006020820190508181036000830152614cf781614cbb565b9050919050565b7f4552433732315072657365744d696e7465725061757365724175746f49643a2060008201527f6d75737420686176652070617573657220726f6c6520746f20756e7061757365602082015250565b6000614d5a604083614176565b9150614d6582614cfe565b604082019050919050565b60006020820190508181036000830152614d8981614d4d565b9050919050565b7f4552433732314275726e61626c653a2063616c6c6572206973206e6f74206f7760008201527f6e6572206e6f7220617070726f76656400000000000000000000000000000000602082015250565b6000614dec603083614176565b9150614df782614d90565b604082019050919050565b60006020820190508181036000830152614e1b81614ddf565b9050919050565b7f4e487b7100000000000000000000000000000000000000000000000000000000600052603260045260246000fd5b7f4e487b7100000000000000000000000000000000000000000000000000000000600052601160045260246000fd5b6000614e8b82614226565b91507fffffffffffffffffffffffffffffffffffffffffffffffffffffffffffffffff821415614ebe57614ebd614e51565b5b600182019050919050565b7f455243373231456e756d657261626c653a20676c6f62616c20696e646578206f60008201527f7574206f6620626f756e64730000000000000000000000000000000000000000602082015250565b6000614f25602c83614176565b9150614f3082614ec9565b604082019050919050565b60006020820190508181036000830152614f5481614f18565b9050919050565b7f4552433732313a206f776e657220717565727920666f72206e6f6e657869737460008201527f656e7420746f6b656e0000000000000000000000000000000000000000000000602082015250565b6000614fb7602983614176565b9150614fc282614f5b565b604082019050919050565b60006020820190508181036000830152614fe681614faa565b9050919050565b7f4552433732315072657365744d696e7465725061757365724175746f49643a2060008201527f6d7573742068617665206d696e74657220726f6c6520746f206d696e74000000602082015250565b6000615049603d83614176565b915061505482614fed565b604082019050919050565b600060208201905081810360008301526150788161503c565b9050919050565b7f4552433732313a2062616c616e636520717565727920666f7220746865207a6560008201527f726f206164647265737300000000000000000000000000000000000000000000602082015250565b60006150db602a83614176565b91506150e68261507f565b604082019050919050565b6000602082019050818103600083015261510a816150ce565b9050919050565b7f4552433732315072657365744d696e7465725061757365724175746f49643a2060008201527f6d75737420686176652070617573657220726f6c6520746f2070617573650000602082015250565b600061516d603e83614176565b915061517882615111565b604082019050919050565b6000602082019050818103600083015261519c81615160565b9050919050565b7f4552433732313a20617070726f766520746f2063616c6c657200000000000000600082015250565b60006151d9601983614176565b91506151e4826151a3565b602082019050919050565b60006020820190508181036000830152615208816151cc565b9050919050565b7f4552433732314d657461646174613a2055524920717565727920666f72206e6f60008201527f6e6578697374656e7420746f6b656e0000000000000000000000000000000000602082015250565b600061526b602f83614176565b91506152768261520f565b604082019050919050565b6000602082019050818103600083015261529a8161525e565b9050919050565b600081905092915050565b60006152b78261416b565b6152c181856152a1565b93506152d1818560208601614187565b80840191505092915050565b60006152e982856152ac565b91506152f582846152ac565b91508190509392505050565b7f4552433732313a206f70657261746f7220717565727920666f72206e6f6e657860008201527f697374656e7420746f6b656e0000000000000000000000000000000000000000602082015250565b600061535d602c83614176565b915061536882615301565b604082019050919050565b6000602082019050818103600083015261538c81615350565b9050919050565b7f4552433732313a207472616e73666572206f6620746f6b656e2074686174206960008201527f73206e6f74206f776e0000000000000000000000000000000000000000000000602082015250565b60006153ef602983614176565b91506153fa82615393565b604082019050919050565b6000602082019050818103600083015261541e816153e2565b9050919050565b7f4552433732313a207472616e7366657220746f20746865207a65726f2061646460008201527f7265737300000000000000000000000000000000000000000000000000000000602082015250565b6000615481602483614176565b915061548c82615425565b604082019050919050565b600060208201905081810360008301526154b081615474565b9050919050565b60006154c282614226565b91506154cd83614226565b9250828210156154e0576154df614e51565b5b828203905092915050565b60006154f682614226565b915061550183614226565b9250827fffffffffffffffffffffffffffffffffffffffffffffffffffffffffffffffff0382111561553657615535614e51565b5b828201905092915050565b7f416363657373436f6e74726f6c3a2063616e206f6e6c792072656e6f756e636560008201527f20726f6c657320666f722073656c660000000000000000000000000000000000602082015250565b600061559d602f83614176565b91506155a882615541565b604082019050919050565b600060208201905081810360008301526155cc81615590565b9050919050565b7f5061757361626c653a206e6f7420706175736564000000000000000000000000600082015250565b6000615609601483614176565b9150615614826155d3565b602082019050919050565b60006020820190508181036000830152615638816155fc565b9050919050565b600060029050919050565b600081905092915050565b6000819050919050565b61566881614226565b82525050565b600061567a838361565f565b60208301905092915050565b6000602082019050919050565b61569c8161563f565b6156a6818461564a565b92506156b182615655565b8060005b838110156156e25781516156c9878261566e565b96506156d483615686565b9250506001810190506156b5565b505050505050565b60006156f68284615693565b60408201915081905092915050565b7f5468697320736f6c7574696f6e2068617320616c7265616479206265656e206160008201527f6464656400000000000000000000000000000000000000000000000000000000602082015250565b6000615761602483614176565b915061576c82615705565b604082019050919050565b6000602082019050818103600083015261579081615754565b9050919050565b7f5468652070726f76696465642070726f6f66206973206e6f742076616c696400600082015250565b60006157cd601f83614176565b91506157d882615797565b602082019050919050565b600060208201905081810360008301526157fc816157c0565b9050919050565b60006040820190506158186000830185614431565b6158256020830184614351565b9392505050565b7f4552433732313a206d696e7420746f20746865207a65726f2061646472657373600082015250565b6000615862602083614176565b915061586d8261582c565b602082019050919050565b6000602082019050818103600083015261589181615855565b9050919050565b7f4552433732313a20746f6b656e20616c7265616479206d696e74656400000000600082015250565b60006158ce601c83614176565b91506158d982615898565b602082019050919050565b600060208201905081810360008301526158fd816158c1565b9050919050565b7f5061757361626c653a2070617573656400000000000000000000000000000000600082015250565b600061593a601083614176565b915061594582615904565b602082019050919050565b600060208201905081810360008301526159698161592d565b9050919050565b7f4552433732313a207472616e7366657220746f206e6f6e20455243373231526560008201527f63656976657220696d706c656d656e7465720000000000000000000000000000602082015250565b60006159cc603283614176565b91506159d782615970565b604082019050919050565b600060208201905081810360008301526159fb816159bf565b9050919050565b7f4e487b7100000000000000000000000000000000000000000000000000000000600052601260045260246000fd5b6000615a3c82614226565b9150615a4783614226565b925082615a5757615a56615a02565b5b828204905092915050565b6000615a6d82614226565b9150615a7883614226565b925082615a8857615a87615a02565b5b828206905092915050565b7f416363657373436f6e74726f6c3a206163636f756e7420000000000000000000600082015250565b6000615ac96017836152a1565b9150615ad482615a93565b601782019050919050565b7f206973206d697373696e6720726f6c6520000000000000000000000000000000600082015250565b6000615b156011836152a1565b9150615b2082615adf565b601182019050919050565b6000615b3682615abc565b9150615b4282856152ac565b9150615b4d82615b08565b9150615b5982846152ac565b91508190509392505050565b7f4e487b7100000000000000000000000000000000000000000000000000000000600052603160045260246000fd5b600081519050919050565b600082825260208201905092915050565b6000615bbb82615b94565b615bc58185615b9f565b9350615bd5818560208601614187565b615bde816141ba565b840191505092915050565b6000608082019050615bfe60008301876142bb565b615c0b60208301866142bb565b615c186040830185614351565b8181036060830152615c2a8184615bb0565b905095945050505050565b600081519050615c44816140dc565b92915050565b600060208284031215615c6057615c5f6140a6565b5b6000615c6e84828501615c35565b91505092915050565b7f4552433732315061757361626c653a20746f6b656e207472616e73666572207760008201527f68696c6520706175736564000000000000000000000000000000000000000000602082015250565b6000615cd3602b83614176565b9150615cde82615c77565b604082019050919050565b60006020820190508181036000830152615d0281615cc6565b9050919050565b6000615d1482614226565b9150615d1f83614226565b9250817fffffffffffffffffffffffffffffffffffffffffffffffffffffffffffffffff0483118215151615615d5857615d57614e51565b5b828202905092915050565b6000615d6e82614226565b91506000821415615d8257615d81614e51565b5b600182039050919050565b7f537472696e67733a20686578206c656e67746820696e73756666696369656e74600082015250565b6000615dc3602083614176565b9150615dce82615d8d565b602082019050919050565b60006020820190508181036000830152615df281615db6565b905091905056fea2646970667358221220961941743f828704f2448fa787ccd3b074a3380f4edec7a3f1ff3756569db06e64736f6c6343000809003368747470733a2f2f73332d75732d776573742d322e616d617a6f6e6177732e636f6d2f756461636974792d626c6f636b636861696e2f63617073746f6e652f",
  "immutableReferences": {},
  "source": "// SPDX-License-Identifier: MIT\npragma solidity ^0.8.9;\n\nimport \"./ERC721Mintable.sol\";\nimport \"./SquareVerifier.sol\";\n\ncontract SolnSquareVerifier is ERC721Mintable, SquareVerifier {\n\n    struct Solution {\n        bytes32 key;\n        uint256 tokenId;\n    }\n\n    Solution[] private _solutions;\n    mapping(bytes32 => bool) private _uniqueSolutions;\n\n    event SolutionAdded(bytes32 key, uint256 tokenId);\n\n    constructor() ERC721Mintable(\"Real Estate Token\", \"RET\") {}\n\n    function getSolutionsLength() public view returns (uint256) {\n        return _solutions.length;\n    }\n\n    function _addSolution(\n        SquareVerifier.Proof memory proof,\n        uint256[2] memory input\n    ) private {\n        bytes32 key = keccak256(abi.encodePacked(input));\n\n        require(\n            !_uniqueSolutions[key],\n            \"This solution has already been added\"\n        );\n        bool isValidSolution = verifyTx(proof, input);\n        require(isValidSolution, \"The provided proof is not valid\");\n\n        uint256 tokenId = _solutions.length;\n        Solution memory solution = Solution(key, tokenId);\n        _solutions.push(solution);\n        _uniqueSolutions[key] = true;\n\n        emit SolutionAdded(key, tokenId);\n    }\n\n    function mintToken(\n        address to,\n        SquareVerifier.Proof memory proof,\n        uint256[2] memory input\n    ) public {\n        _addSolution(proof, input);\n        super.mint(to);\n    }\n}\n",
  "sourcePath": "/Users/peizhao/Projects/Blockchain/Blockchain-Capstone/eth-contracts/contracts/SolnSquareVerifier.sol",
  "compiler": {
    "name": "solc",
    "version": "0.8.9+commit.e5eed63a.Emscripten.clang"
  },
  "schemaVersion": "3.4.3",
  "updatedAt": "2021-10-24T04:11:16.266Z",
  "devdoc": {
    "kind": "dev",
    "methods": {
      "approve(address,uint256)": {
        "details": "See {IERC721-approve}."
      },
      "balanceOf(address)": {
        "details": "See {IERC721-balanceOf}."
      },
      "burn(uint256)": {
        "details": "Burns `tokenId`. See {ERC721-_burn}. Requirements: - The caller must own `tokenId` or be an approved operator."
      },
      "getApproved(uint256)": {
        "details": "See {IERC721-getApproved}."
      },
      "getRoleAdmin(bytes32)": {
        "details": "Returns the admin role that controls `role`. See {grantRole} and {revokeRole}. To change a role's admin, use {_setRoleAdmin}."
      },
      "getRoleMember(bytes32,uint256)": {
        "details": "Returns one of the accounts that have `role`. `index` must be a value between 0 and {getRoleMemberCount}, non-inclusive. Role bearers are not sorted in any particular way, and their ordering may change at any point. WARNING: When using {getRoleMember} and {getRoleMemberCount}, make sure you perform all queries on the same block. See the following https://forum.openzeppelin.com/t/iterating-over-elements-on-enumerableset-in-openzeppelin-contracts/2296[forum post] for more information."
      },
      "getRoleMemberCount(bytes32)": {
        "details": "Returns the number of accounts that have `role`. Can be used together with {getRoleMember} to enumerate all bearers of a role."
      },
      "grantRole(bytes32,address)": {
        "details": "Overload {grantRole} to track enumerable memberships"
      },
      "hasRole(bytes32,address)": {
        "details": "Returns `true` if `account` has been granted `role`."
      },
      "isApprovedForAll(address,address)": {
        "details": "See {IERC721-isApprovedForAll}."
      },
      "mint(address)": {
        "details": "Creates a new token for `to`. Its token ID will be automatically assigned (and available on the emitted {IERC721-Transfer} event), and the token URI autogenerated based on the base URI passed at construction. See {ERC721-_mint}. Requirements: - the caller must have the `MINTER_ROLE`."
      },
      "name()": {
        "details": "See {IERC721Metadata-name}."
      },
      "ownerOf(uint256)": {
        "details": "See {IERC721-ownerOf}."
      },
      "pause()": {
        "details": "Pauses all token transfers. See {ERC721Pausable} and {Pausable-_pause}. Requirements: - the caller must have the `PAUSER_ROLE`."
      },
      "paused()": {
        "details": "Returns true if the contract is paused, and false otherwise."
      },
      "renounceRole(bytes32,address)": {
        "details": "Overload {renounceRole} to track enumerable memberships"
      },
      "revokeRole(bytes32,address)": {
        "details": "Overload {revokeRole} to track enumerable memberships"
      },
      "safeTransferFrom(address,address,uint256)": {
        "details": "See {IERC721-safeTransferFrom}."
      },
      "safeTransferFrom(address,address,uint256,bytes)": {
        "details": "See {IERC721-safeTransferFrom}."
      },
      "setApprovalForAll(address,bool)": {
        "details": "See {IERC721-setApprovalForAll}."
      },
      "supportsInterface(bytes4)": {
        "details": "See {IERC165-supportsInterface}."
      },
      "symbol()": {
        "details": "See {IERC721Metadata-symbol}."
      },
      "tokenByIndex(uint256)": {
        "details": "See {IERC721Enumerable-tokenByIndex}."
      },
      "tokenOfOwnerByIndex(address,uint256)": {
        "details": "See {IERC721Enumerable-tokenOfOwnerByIndex}."
      },
      "tokenURI(uint256)": {
        "details": "See {IERC721Metadata-tokenURI}."
      },
      "totalSupply()": {
        "details": "See {IERC721Enumerable-totalSupply}."
      },
      "transferFrom(address,address,uint256)": {
        "details": "See {IERC721-transferFrom}."
      },
      "unpause()": {
        "details": "Unpauses all token transfers. See {ERC721Pausable} and {Pausable-_unpause}. Requirements: - the caller must have the `PAUSER_ROLE`."
      }
    },
    "version": 1
  },
  "userdoc": {
    "kind": "user",
    "methods": {},
    "version": 1
  }
}